:020000040800F2
:10000000903500249903000859520008395000081F
:100010005152000891050008716A000800000000B4
:100020000000000000000000000000005156000821
:10003000390B00080000000061520008D956000882
:10004000B3030008B3030008B3030008B3030008B8
:10005000B3030008B3030008B3030008B3030008A8
:10006000B3030008B3030008B303000899050008B0
:10007000F9060008B3030008B3030008B30300083F
:10008000B3030008B3030008B3030008B303000878
:10009000B3030008B3030008B3030008B303000868
:1000A000B303000889580008B3030008B30300082D
:1000B000B3030008B3030008B3030008B303000848
:1000C000B3030008B3030008B3030008B303000838
:1000D000B3030008296A0008B3030008B30300084B
:1000E000B3030008B303000800000000B3030008D6
:1000F000B3030008B3030008B3030008B303000808
:10010000B3030008B3030008B3030008B3030008F7
:10011000B3030008B3030008B3030008B3030008E7
:10012000B3030008B3030008B3030008B3030008D7
:10013000B3030008B3030008B3030008B3030008C7
:1001400000000000000000000000000000000000AF
:10015000B3030008B3030008B3030008B3030008A7
:10016000B3030008B3030008B3030008B303000897
:10017000B3030008B3030008B30300080000000045
:10018000B3030008B3030008B3030008B303000877
:10019000B3030008B3030008B3030008B303000867
:1001A000B3030008B3030008B30300080000000015
:1001B000B3030008B3030008B3030008B303000847
:1001C000B3030008B30300080000000000000000B3
:1001D0000000000000000000B30300080000000061
:1001E000000000000000000000000000000000000F
:1001F0000000000000000000B3030008B303000883
:10020000B3030008B303000800000000B3030008B4
:10021000B3030008B3030008B3030008B3030008E6
:10022000B303000800000000B30300080000000052
:10023000B3030008B303000800000000B303000884
:10024000B3030008B3030008B3030008B3030008B6
:10025000B3030008B3030008B3030008B3030008A6
:10026000B3030008B3030008B3030008B303000896
:10027000B3030008B3030008B30300080000000044
:10028000B3030008B3030008B3030008B303000876
:1002900000000000B3030008B303000800000000E2
:1002A00000000000B3030008B3030008B303000814
:1002B000B3030008B3030008B3030008B303000846
:1002C000B3030008B3030008B303000800F002F80A
:1002D00000F052F814A696E8000CB244B344DA4594
:1002E00001D100F049F8BAE80F000FA696E83000F7
:1002F000A5EB040504EB0607AAEB0704A7F1010729
:100300004FEA15154FEA3414A4F10104AC4201D3AD
:1003100000F032F813F0010F18BFFB1A43F001038D
:1003200000F001F8DBE71847807B0000B07B00009D
:10033000103A24BF78C878C1FAD8520724BF30C811
:1003400030C144BF04680C60704700007047000073
:100350000023002400250026103A28BF78C1FBD8CE
:10036000520728BF30C148BF0B6070471FB507F068
:1003700058FD1FBD10B510BD00F0D0F81146FFF7B5
:10038000F5FF06F00DFD00F0EEF803B4FFF7F2FF05
:1003900003BC00F0F5F80000094880470948004711
:1003A000FEE7FEE7FEE7FEE7FEE7FEE7FEE7FEE725
:1003B000FEE7FEE704480549054A064B7047000082
:1003C000D9570008CD020008902F00249035002452
:1003D000903100249031002453EA020C00F069802F
:1003E0002DE9F04B4FF00006002B1FBFB3FA83F549
:1003F00003FA05F424FA05F65E4012BF1643B2FA7A
:1004000082F502FA05F4C5F120051EBF22FA05FCAB
:1004100044EA0C04203556EA044C4FEA144418BF51
:10042000641C4FF000084FF00009904271EB030C80
:1004300039D3002919BFB1FA81F701FA07F6B0FAEA
:1004400080F700FA07F6C7F120071EBF20FA07FC65
:1004500046EA0C062037B6FBF4FCA7EB0507103F75
:1004600007F01F0BCBF120062CFA06F60CFA0BFB5B
:1004700044BFB3460026202FA4BF5E464FF0000BBA
:100480005BEA060C08BF4FF0010B19EB0B0948EBB8
:100490000608ABFB027C06FB02CC0BFB03CCC01BAB
:1004A00071EB0C01C1E70B46024641464846BDE8E8
:1004B000F08B13B5084318BF4FF0FF300146AFF380
:1004C0000080BDE81C4070474FF0000200B51346A5
:1004D00094469646203922BFA0E80C50A0E80C5064
:1004E000B1F12001BFF4F7AF090728BFA0E80C5015
:1004F00048BF0CC05DF804EB890028BF40F8042B0E
:1005000008BF704748BF20F8022B11F0804F18BF7A
:1005100000F8012B7047704770477047754600F030
:100520002BF8AE4605006946534620F00700854685
:1005300018B020B5FFF73EFFBDE820404FF00006A1
:100540004FF000074FF000084FF0000BAC46ACE84E
:10055000C009ACE8C009ACE8C009ACE8C00921F0AA
:1005600007018D46704710B50446AFF30080204662
:10057000BDE81040FFF709BF00487047180000248D
:1005800001491820ABBEFEE72600020070470000BC
:10059000FEE7000000000000F0B581B040F24466C4
:1005A00040F25844C2F20046C4F2020445F200454B
:1005B00004F160073068C5F60205B842294611D932
:1005C0000968C9063DD4B842294671D90868800631
:1005D00058D5002006F0CCFE3168B9420AD9281D52
:1005E0004EE000BFA0420BD9A4F154010968C9062E
:1005F000E9D526E0A14211D9A4F14C0040E000BFAA
:100600005822C4F2020202F16001884210D902F5B8
:100610006A710968C906D6D513E000BF5822C4F232
:10062000020202F16000814224D9A4F1500027E0C7
:10063000A2F15801904288BFA2F154010968C9068D
:10064000C1D5002006F0B8FE3068B84202D9291D95
:1006500028E000BFA04203D9A4F14C0122E000BF72
:100660005822C4F2020202F16001884214D9A4F1B6
:10067000500117E0A2F15000914288BFA2F14C0056
:100680002021016040F24460C2F2004001B0BDE8A8
:10069000F04000F04DBE00BFA2F15001904288BF73
:1006A000A2F14C0110220A60B84229463FF68EAFF3
:1006B000A04207D9A4F15401086880063FF589AF2C
:1006C000E0E700BF5822C4F2020202F16001884252
:1006D00006D902F56A71086880063FF57AAFD1E75E
:1006E000A2F15801904288BFA2F154010868800627
:1006F0003FF56FAFC6E7000040F2BC60C2F20040B9
:1007000000F016BE0000000040F20F42D0F800C01A
:10071000C4F20202944511DC6F22C4F20202944535
:1007200022DC3F22C4F20202944539DC1022C4F2DA
:10073000020294455AD0282254E000BF40F26F4292
:10074000C4F2020294451BDC40F23F42C4F20202B2
:1007500094452DDC40F21042C4F20202944545D08B
:1007600040F228423EE000BF9F22C4F202029445BC
:1007700028DC7022C4F20202944537D0882231E08E
:1007800040F29F42C4F20202944523DC40F27042E0
:10079000C4F20202944529D040F2884222E000BF10
:1007A0004022C4F20202944520D058221AE000BF31
:1007B00040F24042C4F20202944517D040F258423F
:1007C00010E000BFA022C4F2020294450ED0B8226D
:1007D00008E000BF40F2B842C4F20202944505D0DE
:1007E00040F2A042C4F20202944517D10CF0F80284
:1007F0004AF6AB23103ACAF6AA23A2FB03310AA396
:100800005F2AC1F302115B5C40F2FF312CEA010167
:10081000C36588BF04318165084670472CF0FF012D
:1008200081650846704700BF0006101600061016C6
:1008300070B540F26F44D0F800C0C4F20204D0F8A2
:1008400058E0A4451ADC9F25C4F20205AC4533DC10
:100850005725C4F20205AC455ADC1025C4F2020546
:10086000AC4500F098802825C4F20205AC4500F0A4
:1008700092804025C4F202058AE000BF45F22F4570
:10088000C5F60205AC452DDC40F2B745C4F20205C1
:10089000AC454BDC40F27045C4F20205AC457AD061
:1008A00040F28845C4F20205AC4574D040F2A04540
:1008B000C4F202056CE000BF40F22745C4F2020515
:1008C000AC4543DCA025C4F20205AC4563D0B82595
:1008D000C4F20205AC455ED040F21045C4F20205F8
:1008E00056E000BF45F26B45C5F60205AC453FDC5E
:1008F00045F23045C5F60205AC454CD045F24445BD
:10090000C5F60205AC4546D045F258453EE000BF6D
:100910005825C4F20205AC453DD07025C4F202054D
:10092000AC4538D08825C4F2020531E040F2B84524
:10093000C4F20205AC452ED045F20845C5F60205C5
:10094000AC4528D045F21C4520E000BF40F22845C8
:10095000C4F20205AC451ED040F24045C4F2020587
:10096000AC4518D040F25845C4F2020510E000BF73
:1009700045F26C45C5F60205AC450CD045F29445F0
:10098000C5F60205AC4506D045F28045C5F6020520
:10099000AC4540F0D080456EC66E002E866E6E600F
:1009A0001CBFD0E91C566E60A44515DC9F24C4F220
:1009B0000204A4452CDC5724C4F20204A44551DCF3
:1009C0001024C4F20204A4457AD02824C4F20204FC
:1009D000A44575D040246FE045F22F44C5F60204CB
:1009E000A44529DC40F2B744C4F20204A44545DC26
:1009F00040F27044C4F20204A44561D040F288443D
:100A0000C4F20204A4455BD040F2A04454E000BF0D
:100A100040F22744C4F20204A4453FDCA024C4F2FF
:100A20000204A4454CD0B824C4F20204A44547D023
:100A300040F2104440E000BF45F26B44C5F60204AA
:100A4000A44555DC45F23044C5F60204A44561D006
:100A500045F24444C5F60204A4455BD045F258442F
:100A600054E000BF5824C4F20204A44528D07024E6
:100A7000C4F20204A44523D088241DE040F2B84407
:100A8000C4F20204A4451BD045F20844C5F6020492
:100A9000A4453FD045F21C4438E000BF40F2284452
:100AA000C4F20204A4450BD040F24044C4F2020454
:100AB000A44505D040F25844C4F20204A4453AD1FA
:100AC0008468C06D00F01F003F2505FA00F0CEF8E5
:100AD0000800DCF80000402C20F48020CCF8000056
:100AE000CCF8043023D1CCF80820CCF80C1070BD21
:100AF00045F26C44C5F60204A4450BD045F280448F
:100B0000C5F60204A44505D045F29444C5F6020496
:100B1000A44510D1C46D012504F01F04806805FAB6
:100B200004F4CEF804404028CCF80430DBD0CCF8F4
:100B30000810CCF80C2070BD7047000000000000C9
:100B4000EFF3108072B600BFFEE700000000000067
:100B50002DE9F041044601F0F3FD1CB3054694F87D
:100B60003500022822D140F20F472668C4F202075E
:100B700040F26F48BE426FF00E00C4F202081DDC66
:100B80006F21C4F202018E422ADC3F21C4F202012D
:100B90008E4241DC1021C4F202018E4263D0282132
:100BA0005CE000BF0120BDE8F08100BF80206065EF
:100BB0000120002184F83410BDE8F08146451BDC9B
:100BC00040F23F41C4F202018E422DDC40F210415E
:100BD000C4F202018E4246D040F228413EE000BFFE
:100BE0009F21C4F202018E4228DC7021C4F202016E
:100BF0008E4238D0882131E040F29F41C4F2020198
:100C00008E4223DC40F27041C4F202018E422AD0AF
:100C100040F2884122E000BF4021C4F202018E422E
:100C200021D058211AE000BF40F24041C4F2020135
:100C30008E4218D040F2584110E000BFA021C4F20B
:100C400002018E420FD0B82108E000BF40F2B84147
:100C5000C4F202018E4206D040F2A041C4F2020169
:100C60008E42314607D13146306820F01E0041F8EF
:100C7000140B6FF080000A68464500EA0200086025
:100C80001ADC9F20C4F20200864233DC5720C4F2F3
:100C9000020086425ADC1020C4F20200864200F0B4
:100CA00097802820C4F20200864200F09180402004
:100CB000C4F202008AE000BF45F22F40C5F60200F0
:100CC00086422DDC40F2B740C4F2020086424BDC83
:100CD00040F27040C4F20200864279D040F288406F
:100CE000C4F20200864273D040F2A040C4F2020077
:100CF0006CE000BF40F22740C4F20200864243DCB1
:100D0000A020C4F20200864262D0B820C4F20200E1
:100D100086425DD040F21040C4F2020056E000BFAF
:100D200045F26B40C5F6020086423FDC45F230409A
:100D3000C5F6020086424BD045F24440C5F602009B
:100D4000864245D045F258403EE000BF5820C4F2EC
:100D5000020086423CD07020C4F20200864237D0A6
:100D60008820C4F2020031E040F2B840C4F2020030
:100D700086422DD045F20840C5F60200864227D0B3
:100D800045F21C4020E000BF40F22840C4F20200BF
:100D900086421DD040F24040C4F20200864217D085
:100DA00040F25840C4F2020010E000BF45F26C402F
:100DB000C5F6020086420BD045F29440C5F602000B
:100DC000864205D045F28040C5F60200864204D135
:100DD000206E016821F480710160306820F001000C
:100DE000306000BF3068C00710D001F0A9FC401B84
:100DF0000628F7D320206065032084F83500012001
:100E0000002184F83410BDE8F08100BF206808217B
:100E1000B8424FF03F0211DC6F23C4F20203984244
:100E20001EDC3F23C4F20203984235DC1023C4F2D7
:100E30000203984257D0282350E000BF40451BDCF6
:100E400040F23F43C4F2020398422DDC40F21043CB
:100E5000C4F20203984246D040F228433EE000BF6D
:100E60009F23C4F20203984228DC7023C4F20203D9
:100E7000984238D0882331E040F29F43C4F2020305
:100E8000984223DC40F27043C4F2020398422AD015
:100E900040F2884322E000BF4023C4F2020398429C
:100EA00021D058231AE000BF40F24043C4F20203AD
:100EB000984218D040F2584310E000BFA023C4F27B
:100EC000020398420FD0B82308E000BF40F2A043CD
:100ED000C4F20203984206D040F2B843C4F20203BF
:100EE000984240F0C580D4E9163707F01F07404507
:100EF00002FA07F25A5019DC9F21C4F2020188421B
:100F000032DC5721C4F20201884259DC1021C4F2BC
:100F10000201884200F096802821C4F20201884232
:100F200000F090804021C4F2020189E045F22F4197
:100F3000C5F6020188422DDC40F2B741C4F202013D
:100F400088424BDC40F27041C4F20201884279D001
:100F500040F28841C4F20201884273D040F2A041BD
:100F6000C4F202016CE000BF40F22741C4F202016A
:100F7000884243DCA021C4F20201884262D0B82139
:100F8000C4F2020188425DD040F21041C4F2020175
:100F900056E000BF45F26B41C5F6020188423FDCD6
:100FA00045F23041C5F6020188424BD045F244413A
:100FB000C5F60201884245D045F258413EE000BFE7
:100FC0005821C4F2020188423CD07021C4F20201CF
:100FD000884237D08821C4F2020131E040F2B841A2
:100FE000C4F2020188422DD045F20841C5F6020143
:100FF000884227D045F21C4120E000BF40F2284142
:10100000C4F2020188421DD040F24041C4F2020104
:10101000884217D040F25841C4F2020110E000BFEC
:1010200045F26C41C5F6020188420BD045F294416D
:10103000C5F60201884205D045F28041C5F602019D
:1010400088420BD1616EA26EE06E4A6030B10168D9
:1010500021F480710160D4E91C014160012084F811
:1010600035000020002184F83410BDE8F08100BF75
:101070000421012237E70000F0B190F83510022971
:1010800018D180B540F20F420168C4F202029142C9
:1010900014DC6F23C4F20203994225DC3F23C4F21F
:1010A000020399423CDC1023C4F2020399425DD052
:1010B000282357E0802141650120704740F26F43AB
:1010C000C4F2020399421BDC40F23F43C4F2020324
:1010D00099422DDC40F21043C4F20203994245D0FC
:1010E00040F228433EE000BF9F23C4F2020399422E
:1010F00028DC7023C4F20203994237D0882331E000
:1011000040F29F43C4F20203994223DC40F2704351
:10111000C4F20203994229D040F2884322E000BF82
:101120004023C4F20203994220D058231AE000BFA2
:1011300040F24043C4F20203994217D040F25843B0
:1011400010E000BFA023C4F2020399420ED0B823DE
:1011500008E000BF40F2B843C4F20203994205D050
:1011600040F2A043C4F20203994275D191424FF07C
:10117000040280F8352011DC6F20C4F202008142A5
:1011800022DC3F20C4F20200814239DC1020C4F28C
:101190000200814259D0282054E000BF40F26F4045
:1011A000C4F2020081421BDC40F23F40C4F2020064
:1011B00081422DDC40F21040C4F20200814244D052
:1011C00040F228403EE000BF9F20C4F2020081426E
:1011D00028DC7020C4F20200814236D0882031E041
:1011E00040F29F40C4F20200814223DC40F2704092
:1011F000C4F20200814228D040F2884022E000BFC1
:101200004020C4F2020081421FD058201AE000BFE3
:1012100040F24040C4F20200814216D040F25840F1
:1012200010E000BFA020C4F2020081420DD0B8201F
:1012300008E000BF40F2B840C4F20200814204D08E
:1012400040F2A040C4F202008142086820F0010090
:101250000860002080BD00BF0A6822F00E020A600C
:1012600045F25742C5F6020291420A6822F0010295
:101270000A600FDC45F22F42C5F60202914219DCEA
:1012800045F20842C5F60202914229D045F21C42BD
:1012900022E000BF45F27F42C5F60202914213DC14
:1012A00045F25842C5F60202914219D045F26C420D
:1012B00012E000BF45F23042C5F6020291420FD063
:1012C00045F2444208E000BF45F29442C5F60202EE
:1012D000914205D045F28042C5F6020291421AD1F0
:1012E000D0E9181CD0E916E30A6822F480720A607B
:1012F00003F01F01012202FA01F1CEF80410816E01
:10130000CCF80410C16E31B10A6822F480720A6010
:10131000D0E91C124A60012180F83510016D0022CD
:10132000002980F8342094D08847002080BD000038
:101330002DE9F04782B00021019140F2080148F206
:10134000B513C2F20041C1F64E33856D40F26F49CC
:101350000A680168C4F202092E68A2FB0328494505
:101360002A6815DC9F22C4F2020291422CDC57222B
:10137000C4F20202914251DC1022C4F202029142F4
:101380007BD02822C4F20202914276D040226FE044
:1013900045F22F43C5F60203994229DC40F2B743D8
:1013A000C4F20203994245DC40F27042C4F20202E8
:1013B000914262D040F28842C4F2020291425CD073
:1013C00040F2A04254E000BF40F22742C4F20202C1
:1013D00091423FDCA022C4F2020291424DD0B822D9
:1013E000C4F20202914248D040F2104240E000BFF5
:1013F00045F26B43C5F60203994275DC45F2304372
:10140000C5F60203994200F0828045F24443C5F6D6
:10141000020399427BD045F2584373E05822C4F24C
:101420000202914229D07022C4F20202914224D0D9
:1014300088221DE040F2B843C4F2020399421CD056
:1014400045F20843C5F60203994260D045F21C43B9
:1014500058E000BF40F22842C4F2020291420CD090
:1014600040F24042C4F20202914206D040F2584299
:10147000C4F20202914240F05383C26D082302F08D
:101480001F0240F20F4A9340C4F2020A334200F0B6
:10149000DE8051454FF0040412DC6F27C4F20207CE
:1014A000B9426DDC3F27C4F20207B94200F39C80C9
:1014B0001027C4F20207B94200F0BD802827B5E02A
:1014C000494569DC40F23F47C4F20207B94200F3E4
:1014D000938040F21047C4F20207B94200F0AB809B
:1014E00040F22847A2E000BF45F26C43C5F6020374
:1014F00099420CD045F28043C5F60203994206D0CA
:1015000045F29443C5F60203994240F009830B6803
:10151000C76D07F01F070426BE40164218BF13F020
:10152000040423D10226BE40164218BF13F0020461
:1015300042D1FA40120740F1F38213F0080200F0A2
:10154000EF820A6822F00E020A60012101FA07F216
:101550006A60416580F83510C16C00294FF00002C7
:1015600080F8342040F0D882DAE200BF1A046E60BE
:1015700034D49A0636D40A6822F004020A6031E0B4
:101580009F27C4F20207B94240DC7027C4F2020769
:10159000B94250D0882749E040F29F47C4F2020781
:1015A000B9423BDC40F27047C4F20207B94242D074
:1015B00040F288473AE000BF1A046E6000F1B4823E
:1015C0009A0600F1B5820A6822F00A020A60012137
:1015D00080F83510002180F83410A9E2D90301D435
:1015E000816C98E2016C96E24027C4F20207B9428E
:1015F00021D058271AE000BF40F24047C4F202074A
:10160000B94218D040F2584710E000BFA027C4F2FA
:101610000207B9420FD0B82708E000BF40F2A04748
:10162000C4F20207B94206D040F2B847C4F202073A
:10163000B94218BF08240F68274208D00F6827F066
:1016400004070F60AB60436D43F001034365012362
:10165000934033426FD0514510DC6F27C4F202072C
:10166000B9421DDC3F27C4F20207B94234DC10271F
:10167000C4F20207B94256D028274FE049451BDC87
:1016800040F23F47C4F20207B9422DDC40F2104756
:10169000C4F20207B94246D040F228473EE000BFFC
:1016A0009F27C4F20207B94228DC7027C4F2020760
:1016B000B94238D0882731E040F29F47C4F2020790
:1016C000B94223DC40F27047C4F20207B9422AD083
:1016D00040F2884722E000BF4027C4F20207B94227
:1016E00021D058271AE000BF40F24047C4F2020759
:1016F000B94218D040F2584710E000BFA027C4F20A
:101700000207B9420FD0B82708E000BF40F2A04757
:10171000C4F20207B94206D040F2B847C4F2020749
:10172000B94240F007824F693F0604D5AB60436D74
:1017300043F0020343650423934033426FD0514585
:1017400010DC6F27C4F20207B9421DDC3F27C4F248
:101750000207B94234DC1027C4F20207B94256D05E
:1017600028274FE049451BDC40F23F47C4F20207FF
:10177000B9422DDC40F21047C4F20207B94246D00C
:1017800040F228473EE000BF9F27C4F20207B9425B
:1017900028DC7027C4F20207B94238D0882731E02C
:1017A00040F29F47C4F20207B94223DC40F270477F
:1017B000C4F20207B9422AD040F2884722E000BFB3
:1017C0004027C4F20207B94221D058271AE000BFCF
:1017D00040F24047C4F20207B94218D040F25847DD
:1017E00010E000BFA027C4F20207B9420FD0B8270B
:1017F00008E000BF40F2A047C4F20207B94206D099
:1018000040F2B847C4F20207B94240F09B810F682A
:10181000BF0704D5AB60436D43F004034365102359
:1018200003FA02F2324200F0828051454FF0080381
:1018300010DC6F27C4F20207B9421DDC3F27C4F257
:101840000207B94234DC1027C4F20207B94256D06D
:1018500028274FE049451BDC40F23F47C4F202070E
:10186000B9422DDC40F21047C4F20207B94246D01B
:1018700040F228473EE000BF9F27C4F20207B9426A
:1018800028DC7027C4F20207B94238D0882731E03B
:1018900040F29F47C4F20207B94223DC40F270478E
:1018A000C4F20207B9422AD040F2884722E000BFC2
:1018B0004027C4F20207B94221D058271AE000BFDE
:1018C00040F24047C4F20207B94218D040F25847EC
:1018D00010E000BFA027C4F20207B9420FD0B8271A
:1018E00008E000BF40F2A047C4F20207B94206D0A8
:1018F00040F2B847C4F20207B94218BF04230F6888
:101900001F4214D0AA600A6852030A6808D4D2059C
:1019100008D40A6822F008020A60016C21B906E0C6
:10192000110351D4016C11B1044688472046C16DA2
:1019300001F01F02202101FA02F3334200F0AF80D0
:1019400001681027514511DC6F26C4F20206B1422E
:101950001EDC3F26C4F20206B14239DC1026C4F276
:101960000206B1425BD0282654E000BF49451BDC8B
:1019700040F23F46C4F20206B14231DC40F210466A
:10198000C4F20206B1424AD040F2284642E000BF0B
:101990009F26C4F20206B1422CDC7026C4F2020675
:1019A000B1423CD0882635E040F29F46C4F20206A0
:1019B000B14227DC40F27046C4F20206B1422ED09A
:1019C00040F2884626E000BF816C0029ACD1AEE72A
:1019D0004026C4F20206B14221D058261AE000BFC8
:1019E00040F24046C4F20206B14218D040F25846D6
:1019F00010E000BFA026C4F20206B1420FD0B82604
:101A000008E000BF40F2A046C4F20206B14206D090
:101A100040F2B846C4F20206B14218BF02270E686F
:101A20003E423CD0AB6090F83530042B0B681DD1A2
:101A300023F016030B604B6923F080034B61036CAA
:101A40000BB9836C1BB10B6823F008030B603F21BB
:101A50009140A960012180F83510016D00294FF0F7
:101A6000000280F8342057D15AE000BF5A030A68B8
:101A70000CD4D2050ED40A6822F010020A600121AB
:101A800080F83510002180F8341003E0110301D4F0
:101A9000416C00E0C16B11B1044688472046416D9E
:101AA00000293DD0416DC90734D0042180F835109C
:101AB00001684FEA98220B6823F001030B60019B39
:101AC0000133019393421AD80B68DB0717D0019BAF
:101AD00001330193934212D80B68DB070FD0019BAF
:101AE0000133019393420AD80B68DB0707D0019BAF
:101AF00001330193934202D80B68DB07DFD10968F9
:101B0000C9074FF0030108BF012180F835100021FB
:101B100080F83410C16C19B102B0BDE8F047084735
:101B200002B0BDE8F08700BFD90301D4416CF2E7F1
:101B3000C16BF0E70B680423934033427FF4FFADA1
:101B40006DE600BF0B686AE62DE9F041044600F03F
:101B5000F7FDFCB140F26F4805462068C4F2020868
:101B600040451BDC9F21C4F20201884232DC572130
:101B7000C4F20201884259DC1021C4F202018842F9
:101B800000F083802821C4F20201884200F07D80A9
:101B9000402175E00120BDE8F08100BF45F22F41F2
:101BA000C5F60201884229DC40F2B741C4F20201C5
:101BB000884247DC40F27041C4F20201884264D09E
:101BC00040F28841C4F2020188425ED040F2A04156
:101BD00056E000BF40F22741C4F20201884241DCD6
:101BE000A021C4F2020188424FD0B821C4F2020100
:101BF00088424AD040F2104142E000BF45F26B41BA
:101C0000C5F60201884200F3D18045F23041C5F6A5
:101C10000201884200F0DD8045F24441C5F6020130
:101C2000884200F0D68045F25841CDE05821C4F2F8
:101C30000201884229D07021C4F20201884224D0D6
:101C400088211DE040F2B841C4F2020188421CD054
:101C500045F20841C5F60201884200F0BA8045F21B
:101C60001C41B1E040F22841C4F2020188420CD08C
:101C700040F24041C4F20201884206D040F258418D
:101C8000C4F20201884240F03981022184F8351003
:101C9000002184F83410016821F00101016000BFC7
:101CA00020680168C9070DD000F04AFD401B0628D6
:101CB000F6D320206065032084F835000120BDE8BC
:101CC000F08100BF48F23F0204F108060168CFF638
:101CD0001062114065694CCE1143A2691943E36952
:101CE0003143266A0D43616A2B43042943EA060304
:101CF00043EA020303D1D4E90B652E4333436568FD
:101D0000A5F12906292E00F23182DFE816F02B001A
:101D10002B002B002B002B002B002F022F022F0259
:101D20002F022F022F022F022F022F022F022F022B
:101D30002F022F022F022F022F022B002B002B002D
:101D40002B002F022F022F022F022B002B002F021D
:101D50002F022F022F022F022F022B002B002B000D
:101D60002B0000BF43F4801303600429436923F070
:101D7000070341EA030140F0DD80D4E90A53002B58
:101D800041EA050100F0D680B2F5005F00F0B880AE
:101D9000002A40F0C180022D00F0C180012D00F02A
:101DA000B580002D00F0BB80C4E000BF45F26C415F
:101DB000C5F6020188420CD045F28041C5F6020109
:101DC000884206D045F29441C5F60201884240F0AF
:101DD000958004F1080E022184F83510002184F862
:101DE00034100168A3699EE80450A2F18005E769F8
:101DF000B5FA85F566696D09402A4FEA853543EAEB
:101E000007026FF3101142EA060208BF102541EAEB
:101E1000DC0142EA0E02236A294341EAD20141EA87
:101E2000131140F80819C0B2CD2148433C2101EA02
:101E30009020E0652046FEF767FCE16D012201F08D
:101E40001F0102FA01F141602068404500F38180E2
:101E50009F21C4F20201884214DC5721C4F202011E
:101E6000884227DC1021C4F20201884200F0C780BA
:101E70002821C4F20201884200F0C1804021C4F24E
:101E80000201B9E040F22741C4F20201884221DC9C
:101E9000A021C4F20201884200F0B180B821C4F24E
:101EA0000201884200F0AB8040F21041C4F202010E
:101EB000A2E000BF5821C4F20201884200F09F80D6
:101EC0007021C4F20201884200F099808821C4F296
:101ED000020191E040F22841C4F20201884200F080
:101EE0008E8040F24041C4F20201884200F08780B7
:101EF00040F25841C4F202017EE000BF4020D9E622
:101F0000032D17D8DFE805F00E0B0E02A3F1C07207
:101F1000B2FA82F2520904E0032D03D30AD1C3F3CB
:101F200000623AB140206065012084F83500BDE8C8
:101F3000F08100BF41612046FEF7E6FBE16D3F22E4
:101F400001F01F0102FA01F18160206840457FF72E
:101F50007FAF45F22F41C5F60201884216DC40F200
:101F6000B741C4F20201884226DC40F27041C4F25B
:101F70000201884243D040F28841C4F20201884203
:101F80003DD040F2A041C4F2020135E045F26B4180
:101F9000C5F6020188421FDC45F23041C5F6020158
:101FA00088422CD045F24441C5F60201884226D031
:101FB00045F258411EE000BF40F2B841C4F20201B0
:101FC00088421CD045F20841C5F60201884216D06D
:101FD00045F21C410EE000BF45F26C41C5F602011E
:101FE00088420CD045F29441C5F60201884206D0E1
:101FF00045F28041C5F60201884240F0E18045F299
:10200000574C45F6FC0EC5F6020CC5F6020E6045AF
:102010000EDC45F22F41C5F60201884218DC45F27C
:102020000841C5F60201884228D045F21C4121E052
:1020300045F27F41C5F60201884213DC45F2584162
:10204000C5F60201884219D045F26C4112E000BF8A
:1020500045F23041C5F6020188420FD045F24441B5
:1020600008E000BF45F29441C5F60201884205D060
:1020700045F28041C5F60201884247D100F0FC01DB
:102080004CF6CD420839CCF6CC42A1FB0212AEF19F
:10209000FC05AEF17C061309A26803F01F01802A3B
:1020A0004FF0010205EB8305256602FA01F2666630
:1020B000A26605D100206060286072601EE000BF4B
:1020C0006368D9B25F1E072F2960726016D84E1E52
:1020D000082E19D260450EF1440237DC45F22F413B
:1020E000C5F60201884249DC45F20841C5F6020105
:1020F000884259D045F21C4152E000BF0020606781
:10210000C4E91B005CE000BFE06E54E000F0F801A1
:102110004AF6AB221039CAF6AA22A1FB021240F2FB
:102120000F43C4F2020308251109984203F1AA06DD
:102130000B4688BF05EB121340F60005B042C4F20F
:10214000020505F1800628BF0B46A5E745F27F4151
:10215000C5F6020188421BDC45F25841C5F6020172
:10216000884221D045F26C411AE000BF25F00307F8
:10217000742F08BF43F48013F6E500BF45F23041E9
:10218000C5F6020188420FD045F2444108E000BF85
:1021900045F28041C5F60201884205D045F29441DE
:1021A000C5F60201884213D10EEB83000121E066DF
:1021B000B1402267616700210160D4E91C014160E0
:1021C00000206065012184F83510BDE8F08100BF72
:1021D00040F60000C4F2020000F1FC0E00F5A0720F
:1021E000E2E700000000000030B110B590F8344084
:1021F000012C03D1022010BD01207047012480F87A
:10220000344090F83540012C2CD1022480F8354020
:1022100000244465D0F800C0DCF8004024F001043C
:10222000CCF800400446FEF703FB40F20F4C206858
:10223000C4F2020C40F26F416045C4F2020119DCA5
:102240006F23C4F20203984226DC3F23C4F2020348
:1022500098423DDC1023C4F2020398425FD0282349
:1022600058E000BF4FF400614165002180F8341050
:10227000012010BD88421BDC40F23F43C4F2020340
:1022800098422DDC40F21043C4F20203984246D03B
:1022900040F228433EE000BF9F23C4F2020398426D
:1022A00028DC7023C4F20203984238D0882331E03E
:1022B00040F29F43C4F20203984223DC40F2704391
:1022C000C4F2020398422AD040F2884322E000BFC1
:1022D0004023C4F20203984221D058231AE000BFE1
:1022E00040F24043C4F20203984218D040F25843EF
:1022F00010E000BFA023C4F2020398420FD0B8231D
:1023000008E000BF40F2B843C4F20203984206D08E
:1023100040F2A043C4F20203984240F02F810368C8
:102320000B2262F344030360226C1AB10823026893
:102330001A430260884219DC9F22C4F202029042D2
:1023400032DC5722C4F20202904259DC1022C4F25D
:102350000202904200F096802822C4F202029042CB
:1023600000F090804022C4F2020289E045F22F4240
:10237000C5F6020290422DDC40F2B742C4F20202DE
:1023800090424BDC40F27042C4F20202904279D09B
:1023900040F28842C4F20202904273D040F2A0425E
:1023A000C4F202026CE000BF40F22742C4F2020213
:1023B000904243DCA022C4F20202904262D0B822D2
:1023C000C4F2020290425DD040F21042C4F2020216
:1023D00056E000BF45F26B42C5F6020290423FDC78
:1023E00045F23042C5F6020290424BD045F24442DB
:1023F000C5F60202904245D045F258423EE000BF89
:102400005822C4F2020290423CD07022C4F202026E
:10241000904237D08822C4F2020231E040F2B84242
:10242000C4F2020290422DD045F20842C5F60202E3
:10243000904227D045F21C4220E000BF40F22842E3
:10244000C4F2020290421DD040F24042C4F20202A5
:10245000904217D040F25842C4F2020210E000BF8E
:1024600045F26C42C5F6020290420BD045F294420E
:10247000C5F60202904205D045F28042C5F602023E
:10248000904274D1236E1A68D20303D51A6842F4BD
:1024900080721A60E36E1BB11A6842F480721A608F
:1024A000604511DC6F21C4F2020188421EDC3F212D
:1024B000C4F20201884235DC1021C4F202018842D4
:1024C00055D0282150E000BF88421BDC40F23F413C
:1024D000C4F2020188422DDC40F21041C4F2020134
:1024E000884244D040F228413EE000BF9F21C4F220
:1024F0000201884228DC7021C4F20201884236D0F1
:10250000882131E040F29F41C4F20201884223DC7D
:1025100040F27041C4F20201884228D040F2884162
:1025200022E000BF4021C4F2020188421FD058219E
:102530001AE000BF40F24041C4F20201884216D0C6
:1025400040F2584110E000BFA021C4F202018842CD
:102550000DD0B82108E000BF40F2B841C4F202013A
:10256000884204D040F2A041C4F2020188420168CE
:1025700041F001010160002010BD00BF0268052389
:1025800063F343020260226C002A3FF4D3AE0423BB
:10259000CDE60000000000002DE9F04F83B00F6889
:1025A000002F00F0C98000F1264642F2004506F1F6
:1025B000FF76C5F602050A22A8424FEAB62540F288
:1025C000040C08BF092200F120030093082DC5F672
:1025D000000C38BF4FEAB622002400264FF0000856
:1025E00001920AE008F101080F6837FA08F206F1D3
:1025F000020604F1040400F09F80012202FA08FEA2
:1026000017EA0E09EED0D1F804B003220BF003074D
:10261000B2407D1E6FEA020A012D11D88268CD6892
:1026200002EA0A02B5402A438260CBF300154268F1
:1026300022EA0E0205FA08F52A43426004E000BFD0
:10264000032F01D103271FE0C2688D6802EA0A0246
:10265000B540022F42EA0502C26015D16FF00302B5
:1026600004F01C0502EA580B009A0F2352F80BE005
:10267000AB400F692EEA0303AF403B4342F80B30F7
:10268000D1F804B00BF00307026807FA06F302EA78
:102690000A021BF4403F42EA03020260A2D044F265
:1026A000F44340F2084EC5F60203C5F6000E0F25AE
:1026B0001A6842F002021A601A6802F002020292DC
:1026C00028F00302029B04F00C0352F80E709D40A8
:1026D000AF43019D05FA03F33B4342F80E304FF040
:1026E000B04EDEF800204B6842EA0907DD0258BF11
:1026F00022EA09079D02CEF80070DCF8002042EAC9
:10270000090758BF22EA09079D03CCF80070DCF8DE
:10271000802042EA090758BF22EA0907DB03CCF808
:102720008070DCF87C2042EA090758BF22EA0907DA
:10273000CCF87C7056E700BF03B0BDE8F08F000016
:1027400042F63850C2F200400068704700000000B6
:1027500040F2000042F63851C2F20040C2F200419D
:1027600000780A681044086070470000000000000C
:1027700080B5032000F02CF901F0BEF944F21841B5
:1027800047F64863C5F60201C0F600030A68C2F3C3
:1027900003229A5C096801F00F0102F01F02595CE4
:1027A000D04040F20C02C2F2004201F01F0120FAB8
:1027B00001F1116040F20801C2F2004108600F20EF
:1027C00000F00AF800281CBF012080BD00F0A4F82A
:1027D000002080BD000000000F2843D8B0B58AB0AB
:1027E0000446192000222146002500F0C1F81920D6
:1027F00000F0AAF840F20400C2F20040046044F283
:10280000F040C5F60200016841F001010160006876
:1028100001A900F001000290029802A801F0B8F8A6
:1028200001F03AF94DF683614000C4F21B310022F9
:10283000A0FB010140F23470C2F200404FF0FF33C0
:10284000C4F20102026003EB9141C0E9011540F2BC
:10285000E731C0E9031501F083FC28B101200AB07B
:10286000B0BD00BF0120704740F23470C2F200409A
:1028700001F0AAFC0AB0B0BD10B54EF6A05E4378D8
:10288000CEF2000E90F800C04EF8083CDEF80030A2
:1028900023F00103CEF8003043684EF8043C037B7C
:1028A000C27A817A447B120642EA0372837B42EA4F
:1028B000C141C27B41EA8441447A41EA4341007A02
:1028C00041EA024141EA042141EA400040EA0C00A9
:1028D000CEF8000010BD00004EF62450CEF20000ED
:1028E000BFF35F8F016821F480310160002101672F
:1028F00070470000000000004EF6245140F0010037
:10290000CEF200010867086840F480300860BFF329
:102910004F8FBFF36F8F704781B044F2F4400022B5
:10292000C5F60200016841F00201016000680F2154
:1029300000F0020000906FF00100009B01B000F079
:1029400017B8000000000000002848BF704700F0E2
:102950001F01012202FA01F14EF20012C0F34A10E7
:10296000CEF2000242F82010704700000000000084
:1029700070B54EF60C5C4FF0FF36CEF2000C00F155
:10298000604505F56445DCF80030C3F3022E8EF097
:102990000703042B28BF0423BEF1030406FA03F344
:1029A00021EA030100F00F0338BF0024043B002894
:1029B000634406FA04F048BF03F10C05A14022EA83
:1029C000000008430001287070BD000000000000F6
:1029D0004EF60C514FF6FF03CEF200010A681A4082
:1029E00060F30A2242F0806040F0FD70086070479A
:1029F000B0B544F60C05C5F60205296849072968F3
:102A000006D401F00701081A18BF0120B0BD00BFAD
:102A100021F0070108432860FFF792FE044600BF3B
:102A200055F8080C800407D4FFF78AFE001BB0F5A8
:102A30007A7FF5D90120B0BD0020B0BD00000000B4
:102A400080B500F0D1FF44F2204147F64862C5F658
:102A50000201C0F600020968C1F30211515C01F0E5
:102A60001F01C84080BD000080B544F2384EC5F655
:102A7000020E5EF8103C5EF8101C5EF80C2CC1F3E0
:102A8000053CDEF80410BCF1000F19D0C9089FED19
:102A90003C1AD20601EAE27103F003026FF35F31E0
:102AA00000EE101AB8EE400ADFE802F0022210220F
:102AB0005EF8381C89060DD49FED331A18E000BF6C
:102AC00000218160C0E9001180BD00BF9FED2D1A7B
:102AD0000EE000BF5EF8381C49F20002C0F2D032AE
:102AE000C1F3C10122FA01F101EE101AB8EE411A48
:102AF000DEF800109FED253A6FF35F2102EE101A09
:102B0000DEF80010C1F34621B8EE422A013100EE92
:102B1000032A00EE10CAB7EE003AB8EE400A81EE82
:102B2000000A32EE031A20EE010A01EE101AB8EE86
:102B3000411A80EE011ABCEEC11A80ED001ADEF8CF
:102B40000010C1F30641013101EE101AB8EE411A2E
:102B500080EE011ABCEEC11A80ED011ADEF80010F9
:102B6000C1F30661013101EE101AB8EE411A80EE90
:102B7000010ABCEEC00A10EE101A816080BD00BFD1
:102B80000024744A20BCBE4B0024744C0000003961
:102B900080B544F2404EC5F6020E5EF8183C5EF871
:102BA000181C5EF8142CC1F3055CDEF80410BCF1AF
:102BB000000F19D0C9089FED3C1AD20501EAE27155
:102BC00003F003026FF35F3100EE101AB8EE400A13
:102BD000DFE802F0022210225EF8401C89060DD4C4
:102BE0009FED331A18E000BF00218160C0E9001199
:102BF00080BD00BF9FED2D1A0EE000BF5EF8401CA7
:102C000049F20002C0F2D032C1F3C10122FA01F14F
:102C100001EE101AB8EE411ADEF800109FED253AC9
:102C20006FF35F2102EE101ADEF80010C1F34621A7
:102C3000B8EE422A013100EE032A00EE10CAB7EEC8
:102C4000003AB8EE400A81EE000A32EE031A20EE96
:102C5000010A01EE101AB8EE411A80EE011ABCEE1C
:102C6000C11A80ED001ADEF80010C1F306410131EF
:102C700001EE101AB8EE411A80EE011ABCEEC11A2C
:102C800080ED011ADEF80010C1F30661013101EE9A
:102C9000101AB8EE411A80EE010ABCEEC00A10EE1E
:102CA000101A816080BD00BF0024744A20BCBE4B56
:102CB0000024744C000000392DE9F0470446C07828
:102CC00044F22C480007C5F6020828D5606E4FEA8A
:102CD000305103292AD8DFE801F0030B131B00BF92
:102CE000D8F8001041F40031C8F8001010E000BF1F
:102CF00004F10800022102F0E7FA064680B906E076
:102D000004F12800022102F073FB064640B9606E10
:102D1000D8F8241021F440110843C8F824000026F4
:102D20006078C00706D135462FE000BF01266078E5
:102D3000C007F8D0A06D04283ED83546DFE800F083
:102D400004140E0B0B0000BFD8F80000354640F409
:102D50000030C8F800002F46C5B90DE004F1280086
:102D6000002102F045FB04E004F10800002102F01C
:102D7000ABFA05462F464DB9D8F82400A16D20F0D6
:102D8000070000250843C8F824003746607840074C
:102D90003AD5D4F8A4004FEA7050052818D8DFE8D7
:102DA00000F0031D11232323D8F8000040F4003065
:102DB000C8F8000018E000BF01250127607840072F
:102DC000E7D421E004F12800002102F011FB0AE021
:102DD00001250126607800071AD44FE004F10800AD
:102DE000002102F071FA05462E461DB160780007F9
:102DF0000ED443E0D8F82C00D4F8A41020F46000DE
:102E000000250843C8F82C003E466078000735D5F9
:102E1000D4F8A8004FEA3060052813D8DFE800F0A6
:102E200004180C1E1E1E00BFD8F8000040F400302D
:102E3000C8F8000012E000BF04F12800002102F0F1
:102E4000D7FA0AE001250127E07880071AD434E098
:102E500004F10800002102F037FA05462F461DB1A3
:102E6000E07880070ED428E0D8F82C00D4F8A81019
:102E700020F0E06000250843C8F82C003746E078D1
:102E800080071AD5E06C4FEA3010032838D8DFE805
:102E900000F009032D0900BFD8F8000040F400300D
:102EA000C8F800002E464DB9D8F82000E16C20F09B
:102EB000300000250843C8F820003E466078C00670
:102EC00039D5E06D4FEA3030042847D8DFE800F00C
:102ED00004221C0A0A0000BFD8F8000040F40030A9
:102EE000C8F800002F463DBB1CE000BF04F10800FD
:102EF000022102F0E9F90546002D2E46DED1D3E786
:102F000001250126DAE700BF04F12800002102F0C4
:102F10006FFA04E004F10800002102F0D5F905463B
:102F20002F464DB9D8F82400E16D20F4E04000258B
:102F30000843C8F8240037466078800635D5206EEF
:102F40004FEA3040052815D8DFE800F0041A0E04D7
:102F5000040400BF2E46DDB91EE000BF0125012795
:102F600060788006EBD420E004F12800012102F013
:102F70003FFA0AE0012501266078400619D449E0AD
:102F800004F10800012102F09FF905462E461DB10B
:102F9000607840060DD43DE0D8F82400216E20F47E
:102FA000E02000250843C8F824003E46607840062B
:102FB00030D5D4F8AC004FEA307005280ED8DFE8E1
:102FC00000F00313070303032F46ADB918E000BF59
:102FD00004F12800012102F00BFA0AE00125012783
:102FE000607800061AD43CE004F10800012102F0E8
:102FF0006BF905462F461DB1607800060ED430E00F
:10300000D8F82C00D4F8AC1020F0E040002508439C
:10301000C8F82C0037466078000622D5E06E58B11B
:10302000B0F1005F0CD0B0F1805F37D1D8F800006C
:1030300040F40030C8F800002E469DB908E000BFFB
:1030400004F10800012102F03FF905462E464DB972
:10305000D8F82400E16E20F0405000250843C8F85D
:1030600024003E46E078C0071DD0A06C032855D848
:10307000DFE800F008024A08D8F8000040F4003009
:10308000C8F80000A9467DB9D8F82000A16C20F04E
:10309000030000250843C8F8200004E001250126AC
:1030A000E078C007E1D1B146A078400602D44F468F
:1030B00018E000BFD8F8D40340F48070C8F8D403F7
:1030C000FFF73EFB064600BFD8F8D403C00507D47F
:1030D000FFF736FB801B6428F6D90325032701E0A0
:1030E0002F46FDB12078C00700F06F80A06F4FEA37
:1030F000F00005284ED8DFE800F003534703030330
:10310000002D2E4654D157E004F10800022102F0B0
:10311000DBF80546002DA946C6D1B5E701254FF0DD
:103120000109C1E7D8F84410D4F8B000414011F4C7
:10313000407F11D0D8F84410D8F8442042F48032AF
:10314000C8F84420D8F8442021F4407122F4803299
:10315000C8F84420C8F84410B0F5807F40F0D08211
:10316000FFF7EEFA064641F2883A0325032700BF2F
:10317000D8F84400800700F1C182FFF7E1FA801B14
:103180005045F5D9AEE700BF04F12800012102F057
:103190002FF90AE0012501262078800719D446E09E
:1031A00004F10800012102F08FF805462E461DB1FA
:1031B000207880070DD43AE0D8F82800A16F20F0DD
:1031C000380000250843C8F828003E4620788007CC
:1031D0002DD5606F05280FD8DFE800F0041408042F
:1031E000040400BF2F46ADB918E000BF04F1280069
:1031F000012102F0FDF80AE00125012720784007AF
:1032000019D447E004F10800012102F05DF80546F9
:103210002F461DB1207840070DD43BE0D8F8280098
:10322000616F20F0070000250843C8F828003746E2
:10323000207840072ED5D4F8900005280ED8DFE876
:1032400000F00313070303032E46ADB918E000BFD7
:1032500004F12800012102F0CBF80AE00125012643
:10326000207880061AD44BE004F10800012102F016
:103270002BF805462E461DB1207880060ED43FE07F
:10328000D8F82C00D4F8901020F00700002508434F
:10329000C8F82C003E462078800631D5D4F88C0042
:1032A0004FEA307005280FD8DFE800F00414080456
:1032B000040400BF2F46ADB918E000BF04F1280098
:1032C000022102F095F80AE0012501272078400646
:1032D0001AD44BE004F10800002101F0F5FF054687
:1032E0002F461DB1207840060ED43FE0D8F82800C4
:1032F000D4F88C1020F0E04000250843C8F82800DE
:1033000037462078400631D5D4F898004FEAB020EF
:1033100005280FD8DFE800F004140804040400BFF7
:103320002E46ADB918E000BF04F12800022102F0DA
:103330005FF80AE001250126207800061AD44EE045
:1033400004F10800002101F0BFFF05462E461DB123
:10335000207800060ED442E0D8F82C00D4F898105B
:1033600020F4E05000250843C8F82C003E462078A1
:10337000000634D5D4F89C004FEA7030052815D8E3
:10338000DFE800F0041A0E04040400BF2F46E5B184
:103390002068010727D4C1063ED4000355D477E046
:1033A00004F12800022102F023F80AE00125012798
:1033B00020680107EFD516E004F10800002101F0B4
:1033C00083FF0546002D2F46E2D1D8F82C00D4F813
:1033D0009C1020F4604000250843C8F82C003746B4
:1033E00020680107D7D5D4F88000B0F5805F09D1F7
:1033F00004F12800022101F0FBFF002818BF01277B
:10340000D4F88000D8F8281021F440510843C8F8B7
:1034100028002068C106C0D5D4F89400B0F5807F9C
:1034200009D104F12800022101F0E2FF002818BFB1
:103430000127D4F89400D8F82C1021F440710843E7
:10344000C8F82C002068000322D5D4F8A000B0F5FD
:10345000003F11D0B0F5803F08D0002844D104F1DE
:103460000800002101F030FF05E000BF04F1280052
:10347000022101F0BDFF05462E4655B9D8F82C00B3
:10348000D4F8A01020F4403000250843C8F82C00E0
:103490003E46A07840072CD5D4F88400B0F5401FF4
:1034A0000BD0B0F5001F0BD0B0F5801F2AD1D8F893
:1034B000000040F40030C8F800002F46D5B907E0FE
:1034C00004F12800012101F093FF05462F468DB934
:1034D000D8F82800D4F8841020F4401000250843C0
:1034E000C8F8280005E000BF01250126A0784007A4
:1034F000D2D43746A078C00709D13E46216888005B
:1035000015D532E001250127A078C007F5D0206D40
:10351000B0F5803F10D018BBD8F8000040F4003060
:10352000C8F800002E4685B1216888001DD4606867
:103530008A0326D465E000BF04F10800022101F0EF
:10354000C3FE0546002D2E46EED1D8F82000216D91
:1035500020F4803000250843C8F82000CDE700BFE4
:103560000125012621688800E1D504F12800022107
:1035700001F03EFF002818BF0126D4E900108A039D
:103580003FD5E26F6FF0010303EB3223022B0BD325
:103590004FEA322343B1012B40F0AA80D8F8003023
:1035A00043F40033C8F8003025B3CA022CD48A0291
:1035B00034D44A003CD4CA0F49D1090251D4C107BE
:1035C0005AD1810763D441076CD4010776D4C10670
:1035D00000F18080800607D504F12800022101F067
:1035E00007FF002818BF0125002D18BF0125284618
:1035F000BDE8F087D8F8283023F440731A43C8F8A0
:1036000028203546CA02D2D5D8F82420236F22F0CC
:1036100000421A43C8F824208A02CAD5D8F82420C8
:10362000A36E22F080721A43C8F824204A00C2D543
:1036300058F81C2C22F4004248F81C2CD4F8B42072
:1036400058F81C3C1A4348F81C2CCA0FB5D0D8F8BF
:103650002020636D22F040521A43C8F8202009024E
:10366000ADD5D8F82810D4F8882021F440011143B2
:10367000C8F82810C107A4D004F10800002101F007
:1036800023FE002818BF0546606881079BD504F11A
:103690000800012101F018FE002818BF05466068E7
:1036A000410792D504F10800022101F00DFE002827
:1036B00018BF0546606801077FF589AF04F128004F
:1036C000002101F095FE002818BF05466068C1067C
:1036D0007FF580AF04F12800012101F089FE002868
:1036E00018BF0546606880063FF576AF7CE700BFEF
:1036F0000125CA027FF55BAF86E700BFD4F8B000B2
:103700004FF6CF7358F81C2CC0F2FF0300F4407141
:1037100022F47C5203EA10136FF31F30B1F5407F9F
:1037200008BF1A43002548F81C2CD8F84410084359
:10373000C8F84400FFF7BBBC2DE9F04381B0002876
:1037400000F0208142F200090446C5F20029D9F8B0
:10375000000000F00F0081420DD9D9F8000020F0E0
:103760000F000843C9F80000D9F8000000F00F006E
:10377000884240F00781206844F218464207C5F6A7
:1037800002060AD52269336803F070039A4204D90D
:10379000336823F070031A43326002070AD5626966
:1037A000736803F070039A4204D9736823F07003BE
:1037B0001A437260C2060AD5A269736803F4E06313
:1037C0009A4204D9736823F4E0631A437260820654
:1037D0000AD5E269B36803F070039A4204D9B3686A
:1037E00023F070031A43B26010F002020AD0E368BB
:1037F000376807F00F07BB4204D9376827F00F0777
:103800003B433360C3073FD0306820F47062D4E993
:1038100001031A433260012856F8182C0AD00328F5
:1038200004D002280AD192030BD4ABE0920108D451
:10383000A8E000BFD20504D4A4E000BF520740F1C5
:10384000A180884656F8081C21F00701084346F875
:10385000080CFEF775FF054641F2883756F8080C4C
:10386000616800F03800B0EBC10F09D0FEF768FFC7
:10387000401BB842F2D9032001B0BDE8F08300BF7D
:103880002068414600F0020252B1E268336803F05A
:103890000F039A4204D2336823F00F031A433260B5
:1038A000D9F8002002F00F0291420CD2D9F8002082
:1038B00022F00F020A43C9F80020D9F8002002F0D4
:1038C0000F028A425ED141070AD52169326802F0AF
:1038D0007002914204D2326822F0700211433160CA
:1038E00001070AD56169726802F07002914204D240
:1038F000726822F0700211437160C1060AD5A16995
:10390000726802F4E062914204D2726822F4E062CA
:103910001143716080060AD5E069B16801F0700159
:10392000884204D2B16821F070010843B06000F011
:10393000E3F8316847F64862C0F60002C1F303219C
:10394000515C336803F00F0301F01F01D25C20FAD1
:1039500001F102F01F0040F20C02C2F2004221FA13
:1039600000F0106040F2040040F20802C2F2004091
:10397000C2F200420068116001B0BDE8F043FEF7FA
:103980002BBF00BF012001B0BDE8F08300000000A4
:103990003F22026044F21842C5F6020252F8083C87
:1039A00003F007034360136803F4706383601368D4
:1039B00003F00F03C360136803F0700303615368DF
:1039C00003F070034361536803F4E063836192681A
:1039D00002F07002C26142F20000C5F200200068ED
:1039E00000F00F000860704780B500F085F844F2E1
:1039F000184147F64863C5F60201C0F600030A689D
:103A0000C2F303229A5C096801F00F0102F01F0261
:103A1000595C20FA02F201F01F0040F20C01C2F2E0
:103A2000004122FA00F0086040F20801C2F20041B1
:103A30000A6080BD0000000080B500F05DF844F22F
:103A4000184C47F64863C5F6020CC0F60003DCF8D4
:103A50000020C2F303229A5CDCF8001001F00F0191
:103A600002F01F02595CD04040F20C02C2F2004248
:103A700001F01F0120FA01F1116040F20802C2F2C8
:103A800000421060DCF80400C0F30210185C00F083
:103A90001F0021FA00F080BD80B500F02DF844F23F
:103AA000184C47F64863C5F6020CC0F60003DCF874
:103AB0000020C2F303229A5CDCF8001001F00F0131
:103AC00002F01F02595CD04040F20C02C2F20042E8
:103AD00001F01F0120FA01F1116040F20802C2F268
:103AE00000421060DCF80400C0F30220185C00F013
:103AF0001F0021FA00F080BD44F20041C5F602012A
:103B00000869C0F3C200032816D002280ED000288E
:103B100032D10868800649F20000C0F2D03058BFA8
:103B200070470968C1F3C101C840704747F64000BB
:103B3000C0F27D10704700BF8B6A886AD1F82CC034
:103B40004A6BC0F30510E8B1C2F3CC0203F00303E3
:103B500000EE102A9FED2A1AB8EE400A20EE010A64
:103B60009FED281ADFE803F0022110210A6892066F
:103B70000ED49FED261A18E040F60010C0F23D006A
:103B8000704700BF002070479FED1F1A0DE000BF77
:103B90000A6849F20003C0F2D033C2F3C10223FA2B
:103BA00002F201EE102AB8EE411A0A6B9FED183AA4
:103BB0006FF35F2202EE102A5FEACC7203FE000A66
:103BC00003EE100A086BB8EE422AC0F34620B8EEA6
:103BD000433A013030EE020AB7EE002A81EE031AB2
:103BE00030EE020A21EE000A01EE100AB8EE411A88
:103BF00080EE010ABCEEC00A10EE100A704700BF4A
:103C0000000000390024744A20BCBE4B0024744CD0
:103C1000000000000000000070B3F0B581B0044661
:103C2000007844F20046C007C5F6020626D1207887
:103C300080076AD5306910F03801B06A42D018297F
:103C400008BF5FEA80703DD0E0683168002800F06E
:103C50002D8121F0190108433060FEF771FD054602
:103C6000306840074AD4FEF76BFD401B0228F7D9A5
:103C7000032001B0F0BD00BF01207047306900F0A3
:103C80003801B06A102905D018290BD100F00300C3
:103C9000022807D130688003C9D560680028C6D1E2
:103CA000AAE000BF61683068002900F03981B1F5F1
:103CB000A02F00F02D81B1F5803F40F0478140F406
:103CC000803049E130684007E06802D5002800F004
:103CD0009380316821F0190108433060FEF730FD10
:103CE000054600BF3068400708D4FEF729FD401B99
:103CF00002284FF00300F5D901B0F0BD70682169CA
:103D000020F0FE4040EA016070602078C0061AD5BD
:103D1000306900F03801B06A082907D0182940F04E
:103D2000858000F00300012840F080803068C005E5
:103D300002D5E06980285FD1F068216A20F07C50CC
:103D400040EA0160F060207800073FD420788006C8
:103D500056D42078400700F18180656A9DB33069B0
:103D600000F03800182840F01981012DB16A306B3D
:103D700042D001F00302A36A9A423DD1C1F305117A
:103D8000E26A914238D10146226B6FF35F21013A1A
:103D9000914231D1C0F34622616B01398A422BD165
:103DA000C0F30642A16B01398A4225D1C0F30660F7
:103DB000E16B013988421FD1706BA16CC0F3CC005C
:103DC000814240F0A581002001B0F0BD606900286B
:103DD000706F59D040F001007067FEF7B1FC0546E6
:103DE000706F8007B2D4FEF7ABFC401B0228F7D9F6
:103DF000032001B0F0BD00BF012001B0F0BD00BF45
:103E0000A0690028306871D040F480503060FEF71F
:103E100097FC0546306880049BD4FEF791FC401B5C
:103E20000228F7D9032001B0F0BD00BFE0690028E7
:103E3000306800F0A18040F080003060FEF780FC28
:103E4000054600BF3068C0053FF576AFFEF778FC49
:103E5000401B02284FF00300F4D94DE7D6F80004C8
:103E600040F48070C6F80004FEF76AFC054600BF07
:103E7000D6F80004C0052BD4FEF762FC401B642872
:103E8000F6D9032001B0F0BD20F001007067FEF705
:103E900057FC0546706F80077FF558AFFEF750FC62
:103EA000401B02284FF00300F4D925E721F0010060
:103EB0003060FEF745FC0546306840077FF525AFCA
:103EC000FEF73EFC401B02284FF00300F4D913E735
:103ED000A168306F002900F08B80052900F08080F8
:103EE000012940F09D8040F001009FE020F48050C7
:103EF0003060FEF725FC0546306880047FF529AF69
:103F0000FEF71EFC401B02284FF00300F4D9F3E635
:103F100040F480203060306840F480301CE000BF06
:103F200020F480303060306820F480203060FEF76C
:103F300007FC0546306880037FF579AEFEF700FC8C
:103F4000401B64284FF00300F4D9D5E620F48030FC
:103F50003060306820F480203060FEF7F1FB0546C9
:103F6000306880033FF563AEFEF7EAFB401B642830
:103F7000F6D9032001B0F0BD20F080003060FEF7DC
:103F8000DFFB05463068C0057FF5DDAEFEF7D8FBE8
:103F9000401B02284FF00300F4D9ADE6306820F052
:103FA00080703060FEF7CCFB022D05460CD100BFBF
:103FB000306880014CD5FEF7C3FB401B02284FF050
:103FC0000300F5D998E600BF306880017FF5FBAEAD
:103FD000FEF7B6FB401B02284FF00300F4D98BE636
:103FE00040F004003067306F40F001001EE000BF79
:103FF00020F001003067306F20F004003067FEF7DA
:104000009FFB054641F28837306F80077FF5A5AEEC
:10401000FEF796FB401BB8424FF00300F4D96BE665
:1040200020F001003067306F20F004003067FEF7A9
:1040300087FB054641F28837306F80073FF58DAE2C
:10404000FEF77EFB401BB8424FF00300F4D953E665
:1040500004F12807B06A40F2F33188438ECF084359
:10406000591E40EA02104FF47E426FF35F21B062A6
:1040700002EB47204FF4FE0280B2E36B0844A16BD1
:1040800002EB01414FF0FE4201F4FE0102EB03623C
:10409000084402F0FE4108443063F06A4FF6F871BC
:1040A00020F00100F062706BA26C884340EAC2000D
:1040B0007063F06A216C20F00C000843F062F06A33
:1040C000616C20F002000843F062F06A40F4803036
:1040D000F062F06A40F40030F062F06A40F4802050
:1040E000F062F06A40F00100F062306840F08070E9
:1040F0003060FEF725FB0446306880013FF563AE73
:10410000FEF71EFB001B02284FF00300F4D9F3E575
:10411000F06A20F00100F062FEF712FB0546FEF7A0
:104120000FFBA842FBD0706B4FF6F871A26C88436E
:1041300040EAC2007063F06A40F00100F0620020C3
:1041400001B0F0BD0000000070470000000000005A
:1041500070470000000000007047000000000000F1
:1041600060B310B5044690F83D0028B9002084F8EB
:104170003C00204600F024F8022084F83D0020682E
:10418000211D01F089FB012084F8480084F83E00DD
:1041900084F83F0084F8400084F8410084F842002D
:1041A00084F8430084F8440084F8450084F846000D
:1041B00084F8470084F83D00002010BD01207047BE
:1041C000704700000000000090F83D10012927D141
:1041D000022180F83D1001684DF6FF70C4F2000026
:1041E0008142C86840F00100C8601BDC40F2FF70EB
:1041F000C4F2000081422DDD40F60000C4F2000050
:1042000081423DD040F60040C4F20000814237D0E8
:1042100041F60000C4F20000814231D03CE000BF12
:10422000012070474FF6FF70C4F2000081421BDD91
:104230000020C4F20100814222D044F20000C4F206
:10424000010081421CD040F20040C4F201008142D2
:1042500016D021E0B1F1804F12D040F20040C4F2FC
:10426000000081420CD017E04EF20000C4F20000C2
:10427000814205D04EF20040C4F2000081420BD1D1
:1042800007228868C0F2010202400020062A18BFF7
:10429000B2F5803F00D17047086840F00100086027
:1042A0000020704700000000704700000000000080
:1042B000F0B581B004460068C5680669B10717D536
:1042C00015F0020114D06FF0020101610121217784
:1042D0008069800704D02046FFF7E6FF06E000BFB4
:1042E000204600F09DF8204600F09EF80020207740
:1042F000700719D515F0040016D020686FF004017E
:10430000016102212177806910F4407F04D02046AA
:10431000FFF7CAFF06E000BF204600F081F8204604
:1043200000F082F800202077300717D515F008003C
:1043300014D020686FF00801016104212177C06961
:10434000800703D02046FFF7AFFF05E0204600F0CE
:1043500067F8204600F068F800202077F00619D5AD
:1043600015F0100016D020686FF0100101610821CF
:104370002177C06910F4407F04D02046FFF794FFF6
:1043800006E000BF204600F04BF8204600F04CF855
:1043900000202077F00718BF15F0010006D0206834
:1043A0006FF001010161204600F042F805F080073E
:1043B00016F4025F18BF002F02D1F00509D410E0F7
:1043C00020686FF4025101612046FFF7C1FEF0053D
:1043D00007D537B120686FF4807101612046FFF77F
:1043E000B3FE700609D515F0400006D020686FF0C6
:1043F00040010161204600F027F8B0060CD515F009
:10440000200009D020686FF020010161204601B032
:10441000BDE8F040FFF7A0BE01B0F0BD0000000015
:10442000704700000000000070470000000000001E
:1044300000210068C4F20101884218BF7047FEF7EE
:1044400087B9000000000000704700000000000075
:1044500090F88410012901D1022070472421C0F86E
:10446000881001680A680B6822F0005223F00103EB
:104470000B60002343660A602021C0F8881080F892
:104480008430002070470000D0F88C30202B07D1FA
:1044900010B504460120002918BF002A02D110BD22
:1044A00002207047E06600202067204602F064F892
:1044B000002818BF10BDE06E01282DD12068102102
:1044C0000162206850E8000F216840F0100041E8C8
:1044D0000002002A1FBF206850E8000F216840F04A
:1044E00010001CBF41E80002002A17D0206850E8E5
:1044F000000F216840F0100041E8000272B120680E
:1045000050E8000F216840F0100041E80002002050
:10451000002AD6D1C3E700BF012010BD002010BD86
:10452000704700000000000070470000000000001D
:1045300090F88420012A01D10220704770B524220E
:10454000C0F888200268D0F864E0BEF1000FD2F80D
:1045500000C0136823F001031360936823F06063C5
:1045600041EA0301916019D0916847F6706E936833
:10457000C0F6000E5B0F47F67865C1F34266C0F6E1
:1045800000051EF80340E95C2301B3FBF1F11EF8BE
:104590000630AE5D1B01B3FBF6F301E00121012300
:1045A000A0F86A102021A0F86830C2F800C0C0F856
:1045B0008810002180F88410002070BD00000000E9
:1045C00090F88420012A01D10220704770B524227E
:1045D000C0F888200268D0F864E0BEF1000FD2F87D
:1045E00000C0136823F001031360936823F0604355
:1045F00041EA0301916019D0916847F6706E9368A3
:10460000C0F6000E5B0F47F67865C1F34266C0F650
:1046100000051EF80340E95C2301B3FBF1F11EF82D
:104620000630AE5D1B01B3FBF6F301E0012101236F
:10463000A0F86A102021A0F86830C2F800C0C0F8C5
:104640008810002180F88410002070BD0000000058
:1046500070470000000000007047000000000000EC
:1046600041F200010068C4F20101884218BF70479E
:1046700042F6A04C0822C2F2004C0A6204210162F8
:104680000221016201210162BCF8402040F28070E9
:10469000DCF83C10C2F200400023ACF84A30FFF7CF
:1046A000F3BE00000000000070B5016840F62F0264
:1046B000CB691A40202A0A688E680BD102F02004C8
:1046C00006F080552D1917D0416F69B3BDE87040D1
:1046D000084700BF40F60F052B420DD0012540F2E0
:1046E0002014C1F20005C0F2004406EA050C02EAFB
:1046F000040515EB0C0525D1DD06C46E16D5012C7D
:1047000014D112F0100511D010220A6289684906EE
:1047100066D4B0F85C10B0F85E20B0F85E30002BC4
:1047200018BF914240F05C8270BD00BFDD0215D51C
:1047300016F4800512D04FF480120A62BDE8704072
:10474000FFF78ABFDD0718BF12F4807540F01E81A5
:104750009D0706F0010E00F125812EE1190606D510
:1047600002F0800106F40006891940F0BF82590664
:1047700040F1008112F0400100F0FC80016851E836
:10478000001F026821F0400142E80013F3B1016804
:1047900051E8001F026821F0400142E80013002B9D
:1047A0001FBF016851E8001F026821F040011CBFD3
:1047B00042E80013002B09D0016851E8001F02688D
:1047C00021F0400142E80013002BD7D12021C0F88E
:1047D000881000218167BDE8704000F0E9BB00BF90
:1047E000D0F880100A68526893B2002B9CD0B0F8C1
:1047F0005C60B34298D2A0F85E20C969B1F5807FB1
:1048000000F0AC80016851E8001F026821F480715B
:1048100042E80013F3B1016851E8001F026821F477
:10482000807142E80013002B1FBF016851E8001F90
:10483000026821F480711CBF42E80013002B09D0EC
:10484000016851E8001F026821F4807142E80013FA
:10485000002BD7D1016851E8021F026821F0010145
:1048600042E80213F3B1016851E8021F026821F027
:10487000010142E80213002B1FBF016851E8021F2B
:10488000026821F001011CBF42E80213002B09D08D
:10489000016851E8021F026821F0010142E8021399
:1048A000002BD7D1016851E8021F026821F04001B6
:1048B00042E80213F3B1016851E8021F026821F0D7
:1048C000400142E80213002B1FBF016851E8021F9C
:1048D000026821F040011CBF42E80213002B09D0FE
:1048E000016851E8021F026821F0400142E802130A
:1048F000002BD7D12021C0F88C100021C16601689F
:1049000051E8001F026821F0100142E80013F3B1E2
:10491000016851E8001F026821F0100142E800130D
:10492000002B1FBF016851E8001F026821F0100131
:104930001CBF42E80013002B09D0016851E8001F9A
:10494000026821F0100142E80013002BD7D1D0F803
:10495000801004460846FCF7FBF820460221016758
:10496000B0F85C10B0F85E20891A89B2BDE87040DA
:10497000FFF7D6BD190240F1C58112F0804100F069
:10498000C181BDE87040FFF763BE00BF01250D6225
:10499000D0F8905045F00105C0F890509D0706F002
:1049A000010E0AD5BEF1000F07D002240C62D0F828
:1049B000904044F00404C0F890405C070AD5BEF172
:1049C000000F07D004250D62D0F8905045F0020585
:1049D000C0F890501D070CD502F0200555EA0C05D3
:1049E00007D008250D62D0F8905045F00805C0F8B2
:1049F00090501D050BD512F0806508D04FF400656E
:104A00000D62D0F8905045F02005C0F89050D0F8D5
:104A10009050002D3FF488AE9B060BD502F020028B
:104A200006F08053D21805D0426F1AB10446904761
:104A300020462168D0F89020896801F0400102F0FA
:104A40002802891806D10446FFF70AFE0020C4F8A0
:104A5000900070BD016851E8001F026821F4907158
:104A600042E80013F3B1016851E8001F026821F425
:104A7000907142E80013002B1FBF016851E8001F2E
:104A8000026821F490711CBF42E80013002B09D08A
:104A9000016851E8001F026821F4907142E8001398
:104AA000002BD7D14FF6FE71CEF6FF71026852E8A7
:104AB000022F03680A4043E80226DEB1026852E88A
:104AC000022F03680A4043E80226002E1FBF026837
:104AD00052E8022F03680A401CBF43E80226002E5A
:104AE00008D0026852E8022F03680A4043E8022611
:104AF000002EDBD1C16E012927D1016851E8001FCA
:104B0000026821F0100142E80013F3B1016851E896
:104B1000001F026821F0100142E80013002B1FBFA4
:104B2000016851E8001F026821F010011CBF42E833
:104B30000013002B09D0016851E8001F026821F022
:104B4000100142E80013002BD7D12021C0F88C10AF
:104B50000021C166026841679168490640F1CE8034
:104B6000016851E8021F026821F0400142E8021387
:104B7000F3B1016851E8021F026821F0400142E8E8
:104B80000213002B1FBF016851E8021F026821F0C9
:104B900040011CBF42E80213002B09D0016851E814
:104BA000021F026821F0400142E80213002BD7D116
:104BB000D0F88010002900F0A18045F6714204462B
:104BC0000846C0F600020A65FCF756FA00283FF4D2
:104BD000ABADD4F88000016DBDE87040084700BF60
:104BE000891A026852E8002F036822F4907243E8A1
:104BF0000026F6B1026852E8002F036822F4907292
:104C000043E80026002E1FBF026852E8002F036809
:104C100022F490721CBF43E80026002E09D00268DF
:104C200052E8002F036822F4907243E80026002E19
:104C3000D7D14FF6FE72CEF6FF72036853E8023FFB
:104C40000668134046E80235DDB1036853E8023FC9
:104C50000668134046E80235002D1FBF036853E87D
:104C6000023F066813401CBF46E80235002D08D0FD
:104C7000036853E8023F0668134046E80235002DFA
:104C8000DBD12022C0F88C200022C2664267026875
:104C900052E8002F036822F0100243E80026F6B124
:104CA000026852E8002F036822F0100243E8002651
:104CB000002E1FBF026852E8002F036822F0100286
:104CC0001CBF43E80026002E09D0026852E8002FDE
:104CD000036822F0100243E80026002ED7D189B2E3
:104CE00002220267BDE87040FFF71ABC816F0029FD
:104CF0003FF41AADBDE87040084700BFBDE8704002
:104D0000FFF7AEBCD9017FF50FADB2F1FF3FC8BFD1
:104D100070BDBDE87040FFF707BC00000000000058
:104D200010B5D8B10446D0F8880028B9002084F81E
:104D30008400204600F028F82420C4F88800206869
:104D4000A16A0268002922F00101016002D0204618
:104D500000F066FE204601F0BFF908B1012010BD49
:104D60002068416821F490414160816821F02A0166
:104D70008160016841F0010101602046BDE81040FA
:104D800000F0BEBE000000002DE9F043B5B00446BF
:104D900002A80830B02100253095CDE93355CDE982
:104DA0003155FBF791FB41F200012068C4F201018B
:104DB000884203D035B0BDE8F08300BF01200290E7
:104DC00002A80395FDF778FF08B1FBF7B9FE44F29E
:104DD000E04040F21008C5F602000026C4F20208C6
:104DE000016941F010010161016901F010010191B7
:104DF0000199016841F001010160006830A900F0EB
:104E00000100019001984FF4C06030900220319071
:104E1000072034900020C5F6020032963396FDF745
:104E2000BBFB40F244652920C2F200454FF4806983
:104E30004FF48037C5E901064FF48070C5F8008053
:104E4000C5E906602846EE60C5E90496C5E908761E
:104E5000FCF77AFE08B1FBF773FEC4F8805008F146
:104E60001800AC6340F2BC65C2F2004505F10801D0
:104E700028602A206860402081E841022846EE61CF
:104E8000C5E90566C5E90876FCF75EFE08B1FBF7E3
:104E900057FE252005210022E567AC63FDF768FD7C
:104EA0002520FDF751FD35B0BDE8F083000000007E
:104EB0007047000000000000704700000000000084
:104EC000D0F88830202B07D113460122002918BFC3
:104ED000002B05D11046704702221046704700BFD4
:104EE00010B501650022A0F854302124A0F85630F6
:104EF000C0F89020C0F88840D0F87CC0BCF1000F0A
:104F000024D046F2110E46F2D104C0F6000EC0F6CF
:104F10000004CCE90FE445F68144C0F60004CCE976
:104F200013420268044628326046FDF75DF90146E7
:104F3000204659B11021C0F890102021C0F88810E7
:104F40000122BDE810401046704700BF01684022B2
:104F50000A62016851E8021F026841F0800142E8DC
:104F60000213F3B1016851E8021F026841F08001A9
:104F700042E80213002B1FBF016851E8021F0268BC
:104F800041F080011CBF42E80213002B09D00168E8
:104F900051E8021F026841F0800142E80213002B31
:104FA000D7D10022BDE81040104670470000000035
:104FB00070B541F200010068C4F20101884233D1AA
:104FC00042F6A0460020C2F20046307040F28070E7
:104FD000C2F20040D0F88800202825D1B6F8482039
:104FE000341D716C204601F04BFD85B2002D08BFC9
:104FF00070BD40F280002A46C2F20040816A294416
:1050000081620120307040F28070716CC2F2004009
:10501000FFF756FF40B1716C0020307020462A46E1
:10502000BDE8704001F0ECBD70BD00000000000064
:105030007047000000000000FEE7000000000000D4
:1050400080B582B044F2D8400022C5F60200016863
:1050500041F0010101600068052100F001000190AC
:1050600001980B20FDF784FC0B20FDF76DFC0C2054
:1050700005210022FDF77CFC0C2002B0BDE8804039
:10508000FDF762BC0000000010B58EB016A01649F6
:1050900007914168089181680991C1680A91016985
:1050A0000B9141690C9180690D9007A8002101F0D6
:1050B000AFFE40F278041349C2F200440091206030
:1050C00010A04168019181680291C1680391016952
:1050D000049141690591806906906846002101F0BC
:1050E00097FE60600EB010BD8A7E000879560008F9
:1050F00000000000000000000002000000000000AE
:1051000000000000807E0008B9560008FDFF000086
:10511000000000008000000000000000000000000F
:1051200082B044F2E040C5F60200016841F080011F
:105130000160016801F0800101910199016841F06D
:1051400001010160006800F001000090009802B0C9
:10515000704700000000000070B582B040F280701F
:1051600041F20001C2F20040C4F201010C220160D0
:105170004FF4E13141600021C0E902110161C0E951
:105180000521C0E90711C0E90911FFF7C9FD08B100
:10519000FBF7D6FC40F280700021C2F20040FFF71E
:1051A0000FFA08B1FBF7CCFC40F280700021C2F28C
:1051B0000040FFF7BDF908B1FBF7C2FC40F2807078
:1051C000C2F20040FFF744F908B1FBF7B9FC42F620
:1051D000A04441F6A041C2F20044C2F20041201DA9
:1051E0004FF4805200230026009601F0F9FC40F6AF
:1051F000A04146F6792346F6F93504F12000C2F2C3
:105200000041C0F600034FF48052C0F6000500953F
:1052100001F0E6FC40F6A0014FF40070A4F8400055
:1052200040F6A022A4F8480040F28070C2F200418B
:10523000C2F200426264C2F200404FF40072E163C5
:10524000FFF722F9267002B070BD000000000000D8
:10525000FEE7000000000000FEE700000000000084
:10526000EFF30980BFF36F8F154B1A681EF0100F14
:1052700008BF20ED108A20E9F04F10602DE90900E9
:105280004FF0500080F31188BFF34F8FBFF36F8F43
:1052900002F05EFB4FF0000080F31188BDE80900CA
:1052A00019680868B0E8F04F1EF0100F08BFB0ECA6
:1052B000108A80F30988BFF36F8F704700BF00BF6B
:1052C000CC00002400000000F0B581B044F22C476F
:1052D000C5F6020757F8042C02F00302032A03D193
:1052E000012001B0F0BD00BF054657F82C0C0C465C
:1052F00020F0806047F82C0CFDF722FA064600BF2C
:1053000057F82C0C000105D5FDF71AFA801B02286E
:10531000F6D964E057F8040CEE6895E80E0020F426
:105320007C30012C40EA0130A2F101016FF35F21D2
:105330004FF47E4202EB432247F8040C92B24FF046
:10534000FE4302EB01004FF4FE012A6901EB064126
:1053500001F4FE0103EB0262084402F0FE4108443E
:10536000F8603868696920F0C00040EA01003860E0
:105370003868A96920F0200040EA010038603868E8
:105380004FF6F87120F0100038603869EA6920EAB9
:1053900001004FF4001140EAC2003861386808BFCC
:1053A0004FF4801140F01000002C386008BF4FF41B
:1053B000002138680843386057F82C0C40F08060B2
:1053C00047F82C0CFDF7BCF9044600BF57F82C0C2D
:1053D000000107D4FDF7B4F9001B0328F6D303201E
:1053E00001B0F0BD002001B0F0BD000000000000E1
:1053F000F0B581B044F22C47C5F6020757F8042CEB
:1054000002F00302032A03D1012001B0F0BD00BF66
:10541000054657F82C0C0C4620F0805047F82C0C11
:10542000FDF78EF9064600BF57F82C0C800005D515
:10543000FDF786F9801B0228F6D964E057F8040CC2
:10544000EE6895E80E0020F07C70012C40EA0150D7
:10545000A2F101016FF35F214FF47E4202EB432280
:1054600047F8040C92B24FF0FE4302EB01004FF4F8
:10547000FE012A6901EB064101F4FE0103EB026221
:10548000084402F0FE41084478613868696920F4F4
:10549000406040EA010038603868A96920F4007073
:1054A00040EA0100386038684FF6F87120F48070E7
:1054B0003860B869EA6920EA01004FF0807140EA7B
:1054C000C200B861386808BF4FF4000140F4807032
:1054D000002C386008BF4FF48001386808433860FA
:1054E00057F82C0C40F0805047F82C0CFDF728F9A9
:1054F000044600BF57F82C0C800007D4FDF720F9B4
:10550000001B0328F6D3032001B0F0BD002001B03A
:10551000F0BD00000000000080B500F009F8002098
:105520000121BDE8804000F03BB800000000000011
:1055300040F29C100021C2F20040032247F69D6316
:105540008162C0F600030261426140F24422C2F26D
:105550000042C162C0E906324FF480620366C0E9CE
:10556000082140F2B802C2F2004201324266102223
:105570008266C166C0E91C1145F25241C0F2540175
:10558000C0F8071044F24751C0F25201C0F80310AE
:1055900044F25351C4F24771016020218171704778
:1055A00010B540F29C138C46C2F200431A789AB1AF
:1055B0001969884246D200EB4000EFF311824FF0A8
:1055C000200181F3118803EBC000C0F82CC000203B
:1055D00082F3118810BD00BF47F69D6E40F244244F
:1055E00000229A62C0F6000EC2F20044C3E906E44B
:1055F0004FF480640321C3E9084240F2B804196102
:10560000C2F200445961DA620134C3F860E05C66BA
:1056100010249C66DA66C3E91C2245F25242C0F2AD
:105620005402C3F8072044F24752C0F25202C3F8B2
:10563000032044F25352C4F247721A6020229A7136
:105640008842B8D34FF0FF3010BD000000000000CA
:10565000074B19680868B0E8F04F80F30988BFF37A
:105660006F8F4FF0000080F31188704700BF00BFBC
:10567000CC00002400000000ADF5806D40F29415D0
:105680006C46C2F2004502E0012001F0B1FB28683F
:105690004FF48062013028600020214601F028FF8D
:1056A0000028F1D002460020214601F031FF002001
:1056B00001F0DAFEE8E7000040F29814C2F200447C
:1056C000FDF73EF82168411AB1F57A7F28BF2060C6
:1056D000012001F08DFBF3E780B54FF0500080F31F
:1056E0001188BFF36F8FBFF34F8F02F0A1FA30B173
:1056F0004EF604504FF08051CEF2000001600020C1
:1057000080F3118880BD0000B0B59CB044F6180449
:1057100009A84C21C5F60204FAF7D6FE022000259E
:10572000CDE90755CDE90555CDE90355CDE901553D
:10573000FDF75EF90095206820F440402060206865
:1057400000F44040009000982068800409D420684C
:1057500080045CBF20685FEA804002D42068800437
:10576000F2D50220099012900025CDE917000C20F7
:105770000121CDE919054FF440601B9009A80C9157
:1057800040240D941395042214922222CDE9152170
:10579000FEF742FA20B1EFF3108072B6FEE700BFC9
:1057A0003F20019003200321CDE902050820069443
:1057B000CDE904044FF48060CDE9070401A8FDF7AA
:1057C000BBFF28B1EFF3108072B600BFFEE700BF49
:1057D0001CB0B0BD000000004EF6885042F2000C34
:1057E000CEF20000C5F2002C026842F470020260A2
:1057F000DCF8000000F00F00062806D8DCF80000F6
:10580000072262F30300CCF8000044F200404EF699
:105810007F51C5F60200CEF6F621026842F0010281
:10582000026000220261036819400160DCF8001088
:10583000090706D5DCF80010072363F30301CCF851
:10584000001040F200218261C261C0F202210262B6
:1058500081620021C0F2FF11C16240F28021C0F2DA
:105860000111016342638163C263016442640168A0
:1058700021F480210160026644F20000C5F200209C
:1058800043F2D2010160704740F23470C2F200402E
:10589000FEF70EBD0000000040F6FF32C4F2000229
:1058A0009042026810DCB0F1804F1ED040F20043FD
:1058B000C4F20003984218D040F60003C4F200037B
:1058C000984212D015E000BF40F60043C4F2000336
:1058D00098420AD040F20043C4F20103984204D037
:1058E0000023C4F20103984203D122F070024B68F6
:1058F0001A434EF2FF3343F6FF7CC4F20003C4F2B6
:10590000010C984214DD60452CDC4EF20043C4F2D9
:105910000003984243D00023C4F2010398423ED0D2
:1059200040F20043C4F20103984238D03BE000BF8C
:1059300040F2FF73C4F20003984227DD40F60003F3
:10594000C4F2000398422AD040F60043C4F2000398
:10595000984224D04EF20003C4F2000398421ED0B5
:1059600021E000BF44F20003C4F20103984216D0C4
:1059700044F60003C4F20103984210D044F20043FD
:10598000C4F2010398420AD00DE000BFB0F1804F8D
:1059900005D040F20043C4F20003984203D122F440
:1059A0004072CB681A4310B522F08002D1F800E0B3
:1059B0004C698B6822430260C3626045C0F828E0EE
:1059C000BDE8104012DD44F20002C4F20102904230
:1059D00017D044F60002C4F20102904211D044F202
:1059E0000042C4F2010290420BD00CE00022C4F24B
:1059F0000102904205D040F20042C4F201029042FE
:105A000001D109690163012141610169C90708BF29
:105A10007047016921F00101016170470000000039
:105A2000816A0A070CD4CA0715D18A071ED44A070F
:105A300027D4CA0630D48A0639D44A0642D454E060
:105A40000268D0F838C0536823F4004343EA0C03DB
:105A50005360CA07E9D00268D0F82CC0536823F419
:105A6000003343EA0C0353608A07E0D50268D0F89C
:105A700030C0536823F4803343EA0C0353604A0771
:105A8000D7D50268D0F834C0536823F4802343EAA2
:105A90000C035360CA06CED50268D0F83CC09368A8
:105AA00023F4805343EA0C0393608A06C5D5026849
:105AB000D0F840C0936823F4005343EA0C0393608A
:105AC0004A0612D50268D0F844C0BCF5801F53685E
:105AD00023F4801343EA0C03536006D1536823F484
