:020000040800F2
:100000003806002045040008D947000811470008B9
:10001000D1470008C917000839680008000000002F
:10002000000000000000000000000000A94D0008D2
:10003000D117000800000000E1470008B14D00089A
:100040005F0400085F0400085F0400085F04000804
:100050005F0400085F0400085F0400085F040008F4
:100060005F0400085F0400085F0400085F040008E4
:100070005F0400085F0400085F0400085F040008D4
:100080005F0400085F0400085F0400085F040008C4
:100090005F0400085F0400085F0400085F040008B4
:1000A0005F0400085F0400085F0400085F040008A4
:1000B0005F0400085F0400085F0400085F04000894
:1000C0005F0400085F0400085F0400085F04000884
:1000D0005F040008596700085F0400085F04000817
:1000E0005F0400085F040008000000005F040008CF
:1000F0005F0400085F0400085F0400085F04000854
:100100005F0400085F0400085F0400085F04000843
:100110005F0400085F0400085F0400085F04000833
:100120005F0400085F0400085F0400085F04000823
:100130005F0400085F0400085F0400085F04000813
:1001400000000000000000000000000000000000AF
:100150005F0400085F0400085F0400085F040008F3
:100160005F0400085F0400085F0400085F040008E3
:100170005F0400085F0400085F040008000000003E
:100180005F0400085F0400085F0400085F040008C3
:100190005F0400085F0400085F0400085F040008B3
:1001A0005F0400085F0400085F040008000000000E
:1001B0005F0400085F0400085F0400085F04000893
:1001C0005F0400085F040008000000000000000059
:1001D00000000000000000005F04000800000000B4
:1001E000000000000000000000000000000000000F
:1001F00000000000000000005F0400085F04000829
:100200005F0400085F040008000000005F040008AD
:100210005F0400085F0400085F0400085F04000832
:100220005F040008000000005F04000800000000F8
:100230005F0400085F040008000000005F0400087D
:100240005F0400085F0400085F0400085F04000802
:100250005F0400085F0400085F0400085F040008F2
:100260005F0400085F0400085F0400085F040008E2
:100270005F0400085F0400085F040008000000003D
:100280005F0400085F0400085F0400085F040008C2
:10029000000000005F0400085F0400080000000088
:1002A000000000005F0400085F0400085F0400080D
:1002B0005F0400085F0400085F0400085F04000892
:1002C0005F0400085F0400085F04000800F002F803
:1002D00000F0A8F814A696E8000CB244B344DA453E
:1002E00001D100F09FF8BAE80F000FA696E83000A1
:1002F000A5EB040504EB0607AAEB0704A7F1010729
:100300004FEA15154FEA3414A4F10104AC4201D3AD
:1003100000F088F813F0010F18BFFB1A43F0010337
:1003200000F001F8DBE71847906F0000C06F000095
:10033000103A24BF78C878C1FAD8520724BF30C811
:1003400030C144BF04680C60704700007047000073
:100350000023002400250026103A28BF78C1FBD8CE
:10036000520728BF30C148BF0B6070476E2900F0AC
:100370002D82702900F07183662906F0B086652908
:1003800006F0AD86672906F0AA86612906F0A986DF
:1003900003681B0A28BF41F08001692900F0DA8157
:1003A000642900F0D781752900F0D4816F2900F00D
:1003B000FF82782900F03D83E92900F09982E42941
:1003C00000F09682F52900F09382EF2900F0FC827C
:1003D000F82900F03C830368DB0928BF41F0800165
:1003E000632901F06F80732901F07480E32901F023
:1003F0007F80F32901F08480002070471FB506F04C
:1004000061FE01F0D3F804000020002106F044FE54
:10041000401C60600020002106F028FEE0601FBD47
:1004200010B510BD01F094F81146FFF7E7FF06F094
:1004300007FA01F071F903B4FFF7F2FF03BC01F012
:10044000B9F900000948804709480047FEE7FEE780
:10045000FEE7FEE7FEE7FEE7FEE7FEE7FEE7FEE774
:1004600004480549054A064B70470000894E0008BC
:10047000CD02000838000020380600203802002095
:100480003802002053EA020C00F069802DE9F04B9D
:100490004FF00006002B1FBFB3FA83F503FA05F4F3
:1004A00024FA05F65E4012BF1643B2FA82F502FA4C
:1004B00005F4C5F120051EBF22FA05FC44EA0C0430
:1004C000203556EA044C4FEA144418BF641C4FF020
:1004D00000084FF00009904271EB030C39D300295A
:1004E00019BFB1FA81F701FA07F6B0FA80F700FAFE
:1004F00007F6C7F120071EBF20FA07FC46EA0C06E4
:100500002037B6FBF4FCA7EB0507103F07F01F0BE5
:10051000CBF120062CFA06F60CFA0BFB44BFB346CF
:100520000026202FA4BF5E464FF0000B5BEA060CAE
:1005300008BF4FF0010B19EB0B0948EB0608ABFBAA
:10054000027C06FB02CC0BFB03CCC01B71EB0C0145
:10055000C1E70B46024641464846BDE8F08B13B55D
:10056000084318BF4FF0FF300146AFF30080BDE8ED
:100570001C4070477CB51D4616460C00009007D005
:100580004142A14202D32044401E01E04FF0FF301F
:10059000064B7B442A4669460190304600F02FF90D
:1005A000002C02D0009A002111707CBD8F02000047
:1005B000032A40F2308010F0030C00F0158011F88F
:1005C000013BBCF1020F624498BF11F801CB00F867
:1005D000013B38BF11F8013BA2F1040298BF00F8BB
:1005E00001CB38BF00F8013B11F0030300F0048396
:1005F000083AC0F0088051F8043B083A51F804CB9F
:10060000A0E80810F5E7121D5CBF51F8043B40F864
:10061000043BAFF30080D20724BF11F8013B11F86F
:1006200001CB48BF11F8012B24BF00F8013B00F8B3
:1006300001CB48BF00F8012B70474FF0000200B516
:10064000134694469646203922BFA0E80C50A0E8F5
:100650000C50B1F12001BFF4F7AF090728BFA0E8A3
:100660000C5048BF0CC05DF804EB890028BF40F86F
:10067000042B08BF704748BF20F8022B11F0804FB1
:1006800018BF00F8012B704770477047704770B56E
:10069000044685690068C10601D5302600E02026A1
:1006A000C00707D070BDD4E9012130469047206AC9
:1006B000401C20626D1EF6D570BD70B5044685697C
:1006C0000078C00707D170BDD4E9012120209047F0
:1006D000206A401C20626D1EF6D570BD09684A056F
:1006E00001D540B27047C905FCD500B27047096812
:1006F0004A0501D5C0B27047C905FCD580B2704724
:1007000070B50C460546012A05D02878800600D52C
:10071000EA69002302E0012305E05B1C934202D258
:10072000E05C0028F9D1A869E618C01AA861286A17
:10073000184428622846FFF7AAFF04E0D5E9012102
:1007400014F8010B9047B442F8D32846FFF7B5FFE1
:1007500070BD00002DE9F04106460024106875299F
:10076000314616A510D0FFF7B9FF002802DA404243
:1007700013A507E031688A0701D512A502E04907F1
:1007800004D511A5012401E0FFF7B1FF00210A22E1
:1007900006F1240709E0B0FBF2FCB0FBF2F302FB28
:1007A0001C00303078541846491C0028F3D12346E9
:1007B0002A463046BDE8F04100F095BA000000003E
:1007C0002D0000002B0000002000000011680268CE
:1007D000006A530501D508700AE0D30501D50880E9
:1007E00006E0130603D5C217C1E9000200E0086065
:1007F0000120704701694A1C02610878704700B502
:100800008FB0CDE901310021059105497944CDE949
:1008100003101146684600F02BF90FB000BD000030
:10082000E5FFFFFFD1E900239A4202D2531C0B607F
:10083000107070472DE9FF5F15468A460446DFF8C1
:10084000AC80F8440027D8E900103E46CDE90010FE
:1008500010E03AF816106A4602A800F055FE411C56
:1008600007D02178890603D5E269391891420DD85D
:100870000744761C2078800602D5E069B84205DD81
:10088000AE42E6DB3AF816000028E2D1A069C01BB0
:10089000A0612046FFF7FBFED8E90010CDE900106B
:1008A000002017E03AF818106A4602A800F02CFE63
:1008B000B0F1FF3F81460BD000250DF1080B05E09C
:1008C000D4E901211BF8050090476D1C4D45F7D375
:1008D00008F10100B0428046E4DB206A384420621F
:1008E0002046FFF7EAFEBDE8FF9F0000A268000077
:1008F0002DE9F0418046D21D22F007020025D2E901
:100900000002F52915A614D0011E72F1000106DAC5
:100910000023D0EB030063EB020211A608E0D8F835
:1009200000108B0701D50FA602E0490701D50EA6DE
:1009300001251146002408F1240704E000F08EF997
:1009400030323A55641C50EA0102F7D12B46324648
:1009500021464046BDE8F04100F0C5B90000000066
:100960002D0000002B0000002000000030B400210A
:1009700000F1240408E002F00705D208303542EA0D
:100980004372DB086554491C52EA0305F3D104683D
:10099000002310A2250708D504F020040C4304D03E
:1009A000C46901230CA2641EC46130BC00F09BB971
:1009B00010B5044621461068FFF799FE024620460E
:1009C000BDE810400023D1E7D21D22F00701D1E994
:1009D0000023CBE70000000030000000F0B40D461B
:1009E0000188090502D5214C7C4402E01F4C7C445F
:1009F0000E34002100F1240608E002F00F0712096E
:100A0000E75D42EA03721B097754491C52EA030767
:100A1000F3D102780023120704D5702D06D009B156
:100A2000022311342246F0BC00F05DB901231034DA
:100A3000F8E770B504460D4621461068FFF757FEEB
:100A4000024629462046BDE870400023C6E7D21D75
:100A500022F00703D3E90023C0E70368126843F0DC
:100A6000200303600823C3610023B7E70467000085
:100A70002DE9F05F894604464FF0000ADFF874B1B3
:100A8000FB44C0F820A02046E1688847002874D0C5
:100A9000252806D0D4E901219047206A401C206215
:100AA000F1E700265F462046E16888472028054692
:100AB00007DB312D05D2781910F8200C08B1064358
:100AC000F1E7B00701D526F00406C4F81CA0002702
:100AD000C4F818A02A2D09D0284606F0BFFA38B36A
:100AE00004EB8708303DC8F8185019E059F8041B8A
:100AF000204604EB87029161E1688847012F054693
:100B000018D1E069002820DA26F020061DE0D8F888
:100B1000180000EB800005EB40003038C8F81800E2
:100B20002046E1688847054606F098FA0028EED18D
:100B3000012F0AD02E2D08D12046E16888477F1C5E
:100B40000546022F46F02006C4DBA069002803DA20
:100B5000404246F00106A061F00701D026F01006E1
:100B60006C2D0BD0682D09D04C2D39D06A2D35D085
:100B7000742D35D07A2D33D016E038E0E1682F4659
:100B800020468847B842054609D16C2F26D04FF43D
:100B90008060E168064320468847054604E06C2FE4
:100BA0001AD04FF4807006430DB3A5F14100192807
:100BB00002D8203546F400664A462946204626607B
:100BC0004E46FFF7D3FB80B101280BD0F61D26F06F
:100BD000070000F1080956E74020E4E78020D8E745
:100BE0000020D6E706F104094DE7284652E7206ABF
:100BF000BDE8F09F9466000010B5203AC0F00B806D
:100C0000B1E81850A0E81850B1E81850A0E8185002
:100C1000203ABFF4F5AF5FEA027C24BFB1E8185078
:100C2000A0E8185044BF18C918C0BDE810405FEADA
:100C3000827C24BF51F8043B40F8043B08BF704756
:100C4000D20728BF31F8023B48BF11F8012B28BF5B
:100C500020F8023B48BF00F8012B704730B5B0F1D7
:100C60000A0271F100034FEA900E4EEA817EB0EB6A
:100C70000E0061EB91014FEA101E4EEA017E10EB6F
:100C80000E0041EB11114FEA102E4EEA016E10EBEF
:100C90000E0041EB11214FEA104E4EEA014E10EBCF
:100CA0000E0041EB1141401841F100014FEAD00024
:100CB00040EA41704FEAD1014FEA810444EA90745E
:100CC00010EB800544EB01046D1944EB0404521B46
:100CD000A3414FF0000348BF0A3200D530BD401C8D
:100CE00041F1000130BD2DE9F0470D46994692468D
:100CF000044600F124080168880604D5E06921F063
:100D00001001216000E00120A84201DD471B00E046
:100D10000027A1697A1902EB0900081AA06120785E
:100D2000C00602D42046FFF7B2FC002608E0D4E952
:100D300001211AF806009047206A401C761C2062A8
:100D40004E45F4DB2078C0060AD52046FFF79FFC0D
:100D500006E0D4E9012130209047206A401C20623F
:100D6000381EA7F10107F4DC07E0D4E9012118F8E7
:100D700005009047206A401C2062281EA5F101054D
:100D8000F3DC2046FFF799FC2078000602D502200C
:100D9000BDE8F0870120FBE72DE9FF4F0C461E461A
:100DA0004FF0FF378BB0D2E90001DDF860800A9088
:100DB0008A46C1F30A5505B93D46002108464FF061
:100DC0000000BAF1000F00F4400005DA00EB8000EB
:100DD0004FF4400101EA50004FEA9059B9F1010F78
:100DE00000DDB9460A9850EA4A000ED044F6105089
:100DF000A5F2FF3545432F14B8F1000F1ED0754200
:100E0000291E1EDDC9F100021CE0B8F1010F4FF0F0
:100E1000000001D0302103E0F24305E02154401CE2
:100E2000B042FBDB30460022002121540B99C1F86F
:100E30000880C1E900200FB0BDE8F08FBD1B6D1C1C
:100E4000DEE74A4600DA694206A800F0F3FB06AB8B
:100E500093E8070003AB83E8070050460A9905F0C2
:100E60001CFD8DE80700A0F500501F380090039886
:100E7000002D0ADD42F21F014A460844002303A95F
:100E80000390684605F086FF09E0A0F500504A4649
:100E90001F38002303A90390684605F090FF8DE8F2
:100EA00007000004000C03D04FF0FF30410800E0C1
:100EB0001046B8F1000F03D00022009215461EE044
:100EC000751E05D4FFF7CAFE303262556D1EF9D586
:100ED000B3460122084302D000227F1C04E02078A0
:100EE000302801D100227F1E002A099784D01DE0FE
:100EF000112D07DAFFF7B2FE303262556D1C50EA51
:100F00000102F5D1084302D00098C8B10EE00021DB
:100F1000681E05E0235C625C63542254401E491C39
:100F20008142F7DBAB46A81B401E0990002004F865
:100F30000B000B98099AC0F80880C0E9002B7AE7EB
:100F400011264FF0000857E72DE9F04F8846044678
:100F5000D21D22F0070191B0D1E90001CDE90A01CB
:100F600006F064F802460B98C00F01D02D2007E070
:100F70002068810701D52B2002E0202101EAC00072
:100F8000032A099001D0072A05DB03464146204683
:100F900000F010FB0BE12078800601D5E06900E04D
:100FA0000620B8F1650F814606D0B8F1660F18D05B
:100FB000B8F1670F70D131E00020B9F1110F009046
:100FC00001DB112301E009F101030AAA01A90CA820
:100FD000FFF7E2FEDDE90C70002609F1010583460A
:100FE00047E001204B4600904FF000470AAA01A9B4
:100FF0000CA8FFF7D1FEDDE90DB00C995D46002687
:1010000010B909F101000D18B9EB050003D4C0F1C6
:10101000FF3609F10105A5EB09002BE0B9F1010F3D
:1010200001DA4FF001090020B9F1110F0090484694
:1010300001DD112300E003460AAA01A90CA8FFF76D
:10104000ABFEDDE90C704D46002683462078000794
:101050000AD4AB4500DA5D4601A8012D04DD411933
:1010600011F8011C302907D04F4502DA17F1040F9F
:1010700004DA012082460FE06D1EEEE7002F02DC4D
:10108000ED1B3E4403E0781CA84200DD7D1CB81B2C
:1010900000F1010A4FF000472078000703D4AA4569
:1010A00001DB4FF0FF3A0021B7F1004F0DF143088B
:1010B0008DF8431024D002202B23002F01DA7F4229
:1010C0002D230A21021EA0F1010000DC5FB197FB75
:1010D000F1FC97FBF1F201FB1C7C17460CF1300C84
:1010E00008F801CDEEE7A8F1010003702188090599
:1010F00001D5452100E06521A0F1010800F8011C9F
:1011000009980FA9A1EB0807FF1D00B101204119A3
:1011100001EBEA70A1693844081A401EA0612078EA
:10112000C00602D42046FFF7B2FA099828B1D4E9E4
:1011300001219047206A401C20622078C00622D5F9
:101140002046FFF7A4FA1EE0002E04DBB34502DDC3
:1011500001A8805D00E03020D4E901219047206A99
:10116000401C2062761CAAF101005FEA000A0AD145
:1011700000F01CFAC0680168405CD4E90121904786
:10118000206A401C2062281EA5F10105DCDC07E076
:10119000D4E9012118F8010B9047206A401C206215
:1011A000381EA7F10107F3DC2046FFF786FA03207B
:1011B00011B041E62DE9F04F04460D46D21D22F054
:1011C000070089B0D0E900974846394605F02EFF60
:1011D0000246F80F01D02D2307E02068810701D5D2
:1011E0002B2302E0202101EAC0038DF820300BB14F
:1011F000012000E00020032A824601D0072A04DBF8
:101200002946204600F0D6F93FE12078800601D437
:101210000D2500E0E569C7F30A560D2D49DA0021D6
:101220004FEA175B08464FF00000002F00F4400023
:1012300007DA00EB80004FF4400100EBD07001EAC8
:1012400060008115012901DD4FF0FF3100224FEAD6
:10125000850CBCF1180F06D31346ACF118004FF003
:101260008052C24003E04FF4801323FA0CF30CF1D8
:101270000C0CBCF1200F04D3ACF1200C09FA0CF0DB
:1012800001E007FA0CF000294FF0004801DD18B921
:101290000FE00ED140450CD319EB02095F4121B993
:1012A000404502D19F4329EA0209BBEB175F00D0FA
:1012B000761C2088000502D57B48784402E07A48F5
:1012C0007844193808AA302302F80A30037C0AF15E
:1012D0000101002E0AF1020A53546A4602DC4FF063
:1012E000300101E04FF031014FF001088DF800109E
:1012F00002D0A6F2FF3603E059EA470100D06B4E58
:10130000002D02DC2178090704D54FF002082E21B8
:101310008DF80110C44600210BE0C7F303433F01E1
:10132000C35C491C6D1E02F80830052908F101084C
:1013300001DA002DF1DC00210CE000EB1973491CEF
:101340001B786D1E082902F808304FEA091908F1C8
:10135000010801DA002DF0DC21688B0602D516E0C9
:10136000A8F10108E04505DD02EB080313F8013C94
:10137000302BF5D0B8F1000F09DD02EB080313F8AC
:10138000013C2E2B03D1090701D4A8F10108002D3F
:1013900005DD3E2102F808106D1E08F10108407CB1
:1013A000002E02F8080008F1010804DA2D20764228
:1013B00002F8080002E02B2002F808000A214FF48E
:1013C0007A70864208F101080BDB96FBF0F33033AC
:1013D00002F8083096FBF0F308F1010800FB1366F1
:1013E00001E0642E0CDB642096FBF0F3303302F84E
:1013F000083096FBF0F308F1010800FB136601E0EA
:101400000A2E06DB96FBF1F0303002F8080008F1F6
:10141000010896FBF1F001FB1060303002F8080083
:10142000A16908F1010808EB050202EB0A00081A9D
:10143000A0612078C00602D42046FFF728F9216A6F
:1014400008AE01EB0A00206204E0D4E9012116F89D
:10145000010B9047BAF1010AF7D22078C00602D5F5
:101460002046FFF714F96E4609E016F8010B3E28F6
:101470000FD0D4E901219047206A401C2062B8F1C6
:101480000108F2D22046FFF718F909B00320BDE8A1
:10149000F08F206A2844206203E0D4E90121302043
:1014A00090476D1EEBD3F8E77E5E000002FCFFFF65
:1014B00010B5436913B1AFF3008001E0FFF720F9E5
:1014C000012010BD127800F124010A7000224A7038
:1014D0000122EDE711684FF0FF32E9E710B54369EB
:1014E00013B1AFF3008001E0FFF7A4F9012010BDB4
:1014F000128800F1240182840022C2840122EDE7D7
:1015000011684FF0FF32E9E72DE9F04116460C462D
:10151000054600F043F8036893F80101012807D05D
:10152000FF2C12D8185D80B101202C70BDE8F0812D
:10153000D3F807013246214603F20713C71828469D
:10154000BC46BDE8F041002360474FF0FF30EDE7B7
:10155000754600F0EBF8AE4605006946534620F0AC
:101560000700854618B020B5FEF77AFFBDE8204099
:101570004FF000064FF000074FF000084FF0000B4F
:10158000AC46ACE8C009ACE8C009ACE8C009ACE8BE
:10159000C00921F007018D467047000010B500F02A
:1015A00005F8001D10BD00BFF15A0000004870474B
:1015B000200000242DE9F0411F460446032601685F
:1015C000072A01F4006004DB08B116A505E016A5A2
:1015D00003E008B115A500E015A521F0100020607A
:1015E000A069C01EA0610FB1401EA0612046FFF798
:1015F0004EF84FB1D4E9012138469047206A401C8B
:101600002062C01C206206E0206AFAE7D4E90121CA
:1016100015F8010B9047761EF8D22046FFF74DF8DB
:10162000BDE8F0814E414E006E616E00494E4600AD
:10163000696E66002DE9F047814616468AB0354846
:1016400078440DC88DE80D0032487844801C03AC06
:101650000DC884E80D0041F69B300844372190FB0B
:10166000F1F290FBF1F5A5F1800501FB12041B3CA2
:1016700002D56442012000E00020DFF898A08046F7
:101680000027FA44AAF1BE0A0EE0E0070AD032466B
:10169000684607EB470101230AEB810105F08FFB48
:1016A0008DE8070064107F1C002CEED1194F7F4499
:1016B000AE3F19E0E80715D007EB04100DF1180A4A
:1016C00090E80E008AE80E00C068F04201D1981937
:1016D00008903246012306A903A805F070FB03AB6E
:1016E00083E807006D10641C002DE3D14FF0010367
:1016F00032466946B8F1000F03A802D005F04AFB54
:1017000001E005F05CFBC9E90001C9F808200AB056
:10171000BDE8F087885B000010B50446AFF3008099
:101720002046BDE81040FEF786BE00000048704726
:10173000000000240000000030B44FF0013C50F8DD
:10174000042BCCFA52F451F8043BD51A20D1FCB941
:1017500050F8042BCCFA52F451F8043BD51A17D1A7
:10176000B4B950F8042BCCFA52F451F8043BD51A12
:101770000ED16CB950F8042BCCFA52F451F8043B5A
:10178000D51A05D1002CDAD030BC4FF000007047DC
:1017900029BAB1FA81F111F01801D1F12000844089
:1017A000F2D1CA40CB4012F0FF0213F0FF0330BC6D
:1017B000D01A704701491820ABBEFEE72600020090
:1017C0007047000000000000FEE70000000000007D
:1017D0007047000000000000EFF3108072B600BFF9
:1017E000FEE70000000000002DE9F041044600F093
:1017F000BFFC1CB3054694F83500022822D140F204
:101800000F472668C4F2020740F26F48BE426FF0ED
:101810000E00C4F202081DDC6F21C4F202018E42E8
:101820002ADC3F21C4F202018E4241DC1021C4F2C5
:1018300002018E4263D028215CE000BF0120BDE898
:10184000F08100BF802060650120002184F8341001
:10185000BDE8F08146451BDC40F23F41C4F2020185
:101860008E422DDC40F21041C4F202018E4246D07D
:1018700040F228413EE000BF9F21C4F202018E42A7
:1018800028DC7021C4F202018E4238D0882131E078
:1018900040F29F41C4F202018E4223DC40F27041CB
:1018A000C4F202018E422AD040F2884122E000BFF9
:1018B0004021C4F202018E4221D058211AE000BF1B
:1018C00040F24041C4F202018E4218D040F2584129
:1018D00010E000BFA021C4F202018E420FD0B82157
:1018E00008E000BF40F2B841C4F202018E4206D0C7
:1018F00040F2A041C4F202018E42314607D1314686
:10190000306820F01E0041F8140B6FF080000A6868
:10191000464500EA020008601ADC9F20C4F202007B
:10192000864233DC5720C4F2020086425ADC102083
:10193000C4F20200864200F097802820C4F2020020
:10194000864200F091804020C4F202008AE000BF8D
:1019500045F22F40C5F6020086422DDC40F2B7402A
:10196000C4F2020086424BDC40F27040C4F2020036
:10197000864279D040F28840C4F20200864273D099
:1019800040F2A040C4F202006CE000BF40F22740E9
:10199000C4F20200864243DCA020C4F20200864268
:1019A00062D0B820C4F2020086425DD040F21040FE
:1019B000C4F2020056E000BF45F26B40C5F60200DB
:1019C00086423FDC45F23040C5F6020086424BD0ED
:1019D00045F24440C5F60200864245D045F25840E3
:1019E0003EE000BF5820C4F2020086423CD0702086
:1019F000C4F20200864237D08820C4F2020031E0EF
:101A000040F2B840C4F2020086422DD045F20840B0
:101A1000C5F60200864227D045F21C4020E000BFF8
:101A200040F22840C4F2020086421DD040F24040FD
:101A3000C4F20200864217D040F25840C4F20200BD
:101A400010E000BF45F26C40C5F6020086420BD0A4
:101A500045F29440C5F60200864205D045F280402A
:101A6000C5F60200864204D1206E016821F480711F
:101A70000160306820F00100306000BF3068C007AE
:101A800010D000F075FB401B0628F7D320206065BE
:101A9000032084F835000120002184F83410BDE8CB
:101AA000F08100BF20680821B8424FF03F0211DCEE
:101AB0006F23C4F2020398421EDC3F23C4F20203E8
:101AC000984235DC1023C4F20203984257D02823F1
:101AD00050E000BF40451BDC40F23F43C4F202032C
:101AE00098422DDC40F21043C4F20203984246D0E3
:101AF00040F228433EE000BF9F23C4F20203984215
:101B000028DC7023C4F20203984238D0882331E0E5
:101B100040F29F43C4F20203984223DC40F2704338
:101B2000C4F2020398422AD040F2884322E000BF68
:101B30004023C4F20203984221D058231AE000BF88
:101B400040F24043C4F20203984218D040F2584396
:101B500010E000BFA023C4F2020398420FD0B823C4
:101B600008E000BF40F2A043C4F20203984206D04E
:101B700040F2B843C4F20203984240F0C580D4E971
:101B8000163707F01F07404502FA07F25A5019DCD2
:101B90009F21C4F20201884232DC5721C4F20201C3
:101BA000884259DC1021C4F20201884200F096807C
:101BB0002821C4F20201884200F090804021C4F242
:101BC000020189E045F22F41C5F6020188422DDC71
:101BD00040F2B741C4F2020188424BDC40F270414E
:101BE000C4F20201884279D040F28841C4F2020175
:101BF000884273D040F2A041C4F202016CE000BF01
:101C000040F22741C4F20201884243DCA021C4F221
:101C10000201884262D0B821C4F2020188425DD03C
:101C200040F21041C4F2020156E000BF45F26B41A0
:101C3000C5F6020188423FDC45F23041C5F602019B
:101C400088424BD045F24441C5F60201884245D056
:101C500045F258413EE000BF5821C4F202018842DB
:101C60003CD07021C4F20201884237D08821C4F2EE
:101C7000020131E040F2B841C4F2020188422DD0A5
:101C800045F20841C5F60201884227D045F21C41C1
:101C900020E000BF40F22841C4F2020188421DD07A
:101CA00040F24041C4F20201884217D040F258414C
:101CB000C4F2020110E000BF45F26C41C5F602011A
:101CC00088420BD045F29441C5F60201884205D006
:101CD00045F28041C5F6020188420BD1616EA26EC9
:101CE000E06E4A6030B1016821F480710160D4E98E
:101CF0001C014160012084F835000020002184F897
:101D00003410BDE8F08100BF0421012237E7000054
:101D1000F0B190F83510022918D180B540F20F4289
:101D20000168C4F20202914214DC6F23C4F2020380
:101D3000994225DC3F23C4F2020399423CDC102384
:101D4000C4F2020399425DD0282357E08021416507
:101D50000120704740F26F43C4F2020399421BDC3A
:101D600040F23F43C4F2020399422DDC40F210439B
:101D7000C4F20203994245D040F228433EE000BF3E
:101D80009F23C4F20203994228DC7023C4F20203A9
:101D9000994237D0882331E040F29F43C4F20203D6
:101DA000994223DC40F27043C4F20203994229D0E5
:101DB00040F2884322E000BF4023C4F2020399426C
:101DC00020D058231AE000BF40F24043C4F202037F
:101DD000994217D040F2584310E000BFA023C4F24C
:101DE000020399420ED0B82308E000BF40F2B84386
:101DF000C4F20203994205D040F2A043C4F20203A8
:101E0000994275D191424FF0040280F8352011DCDF
:101E10006F20C4F20200814222DC3F20C4F20200A3
:101E2000814239DC1020C4F20200814259D02820BE
:101E300054E000BF40F26F40C4F2020081421BDC5C
:101E400040F23F40C4F2020081422DDC40F21040DB
:101E5000C4F20200814244D040F228403EE000BF7C
:101E60009F20C4F20200814228DC7020C4F20200EC
:101E7000814236D0882031E040F29F40C4F2020017
:101E8000814223DC40F27040C4F20200814228D03B
:101E900040F2884022E000BF4020C4F202008142AC
:101EA0001FD058201AE000BF40F24040C4F20200A8
:101EB000814216D040F2584010E000BFA020C4F28A
:101EC000020081420DD0B82008E000BF40F2B840C7
:101ED000C4F20200814204D040F2A040C4F20200E9
:101EE0008142086820F001000860002080BD00BF2A
:101EF0000A6822F00E020A6045F25742C5F6020255
:101F000091420A6822F001020A600FDC45F22F427A
:101F1000C5F60202914219DC45F20842C5F60202FA
:101F2000914229D045F21C4222E000BF45F27F4297
:101F3000C5F60202914213DC45F25842C5F6020290
:101F4000914219D045F26C4212E000BF45F2304296
:101F5000C5F6020291420FD045F2444208E000BFAC
:101F600045F29442C5F60202914205D045F2804204
:101F7000C5F6020291421AD1D0E9181CD0E916E345
:101F80000A6822F480720A6003F01F01012202FA3B
:101F900001F1CEF80410816ECCF80410C16E31B19D
:101FA0000A6822F480720A60D0E91C124A6001219A
:101FB00080F83510016D0022002980F8342094D07B
:101FC0008847002080BD00002DE9F04F83B00F68E6
:101FD000002F00F0C98000F1264642F2004506F1CC
:101FE000FF76C5F602050A22A8424FEAB62540F25E
:101FF000040C08BF092200F120030093082DC5F648
:10200000000C38BF4FEAB622002400264FF000082B
:1020100001920AE008F101080F6837FA08F206F1A8
:10202000020604F1040400F09F80012202FA08FE77
:1020300017EA0E09EED0D1F804B003220BF0030723
:10204000B2407D1E6FEA020A012D11D88268CD6868
:1020500002EA0A02B5402A438260CBF300154268C7
:1020600022EA0E0205FA08F52A43426004E000BFA6
:10207000032F01D103271FE0C2688D6802EA0A021C
:10208000B540022F42EA0502C26015D16FF003028B
:1020900004F01C0502EA580B009A0F2352F80BE0DB
:1020A000AB400F692EEA0303AF403B4342F80B30CD
:1020B000D1F804B00BF00307026807FA06F302EA4E
:1020C0000A021BF4403F42EA03020260A2D044F23B
:1020D000F44340F2084EC5F60203C5F6000E0F2584
:1020E0001A6842F002021A601A6802F002020292B2
:1020F00028F00302029B04F00C0352F80E709D407E
:10210000AF43019D05FA03F33B4342F80E304FF015
:10211000B04EDEF800204B6842EA0907DD0258BFE6
:1021200022EA09079D02CEF80070DCF8002042EA9E
:10213000090758BF22EA09079D03CCF80070DCF8B4
:10214000802042EA090758BF22EA0907DB03CCF8DE
:102150008070DCF87C2042EA090758BF22EA0907B0
:10216000CCF87C7056E700BF03B0BDE8F08F0000EC
:1021700040F23060C2F2004000687047000000008A
:1021800040F2000040F23061C2F20000C2F20041B1
:1021900000780A68104408607047000000000000E2
:1021A00080B5032000F0FCF801F062F944F2184118
:1021B00047F2F013C5F60201C0F600030A68C2F345
:1021C00003229A5C096801F00F0102F01F02595CBA
:1021D000D04040F20C02C2F2000201F01F0120FACE
:1021E00001F1116040F20801C2F2000108600F2005
:1021F00000F00AF800281CBF012080BD00F07CF828
:10220000002080BD00000000B0B540F20005C2F221
:1022100000052978F1B1044640F20800C2F200003E
:102220004FF47A72B2FBF1F10068B0FBF1F001F00B
:1022300047FC0F2C01464FF001000AD8002918BFB7
:10224000B0BD4FF0FF300022214600F079F80020A9
:102250006C60B0BD0120B0BD10B54EF6A05E4378F5
:10226000CEF2000E90F800C04EF8083CDEF80030C8
:1022700023F00103CEF8003043684EF8043C037BA2
:10228000C27A817A447B120642EA0372837B42EA75
:10229000C141C27B41EA8441447A41EA4341007A28
:1022A00041EA024141EA042141EA400040EA0C00CF
:1022B000CEF8000010BD00004EF62450CEF2000013
:1022C000BFF35F8F016821F4803101600021016755
:1022D00070470000000000004EF6245140F001005D
:1022E000CEF200010867086840F480300860BFF350
:1022F0004F8FBFF36F8F704781B044F2F440C5F643
:102300000200016841F002010160006800F0020073
:102310000090009801B07047002848BF704700F057
:102320001F01012202FA01F14EF20012C0F34A101D
:10233000CEF2000242F820107047000000000000BA
:1023400070B54EF60C5C4FF0FF36CEF2000C00F18B
:10235000604505F56445DCF80030C3F3022E8EF0CD
:102360000703042B28BF0423BEF1030406FA03F37A
:1023700021EA030100F00F0338BF0024043B0028CA
:10238000634406FA04F048BF03F10C05A14022EAB9
:10239000000008430001287070BD0000000000002C
:1023A0004EF60C514FF6FF03CEF200010A681A40B8
:1023B00060F30A2242F0806040F0FD7008607047D0
:1023C000B0B544F60C05C5F6020529684907296829
:1023D00006D401F00701081A18BF0120B0BD00BFE4
:1023E00021F0070108432860FFF7C2FE044600BF42
:1023F00055F8080C800407D4FFF7BAFE001BB0F5AF
:102400007A7FF5D90120B0BD0020B0BD00000000EA
:1024100080B500F0A5FF44F2204147F2F012C5F666
:102420000201C0F600020968C1F30211515C01F01B
:102430001F01C84080BD000080B544F2384EC5F68B
:10244000020E5EF8103C5EF8101C5EF80C2CC1F316
:10245000053CDEF80410BCF1000F19D0C9089FED4F
:102460003C1AD20601EAE27103F003026FF35F3116
:1024700000EE101AB8EE400ADFE802F00222102245
:102480005EF8381C89060DD49FED331A18E000BFA2
:1024900000218160C0E9001180BD00BF9FED2D1AB1
:1024A0000EE000BF5EF8381C49F20002C0F2D032E4
:1024B000C1F3C10122FA01F101EE101AB8EE411A7E
:1024C000DEF800109FED253A6FF35F2102EE101A3F
:1024D000DEF80010C1F34621B8EE422A013100EEC9
:1024E000032A00EE10CAB7EE003AB8EE400A81EEB9
:1024F000000A32EE031A20EE010A01EE101AB8EEBD
:10250000411A80EE011ABCEEC11A80ED001ADEF805
:102510000010C1F30641013101EE101AB8EE411A64
:1025200080EE011ABCEEC11A80ED011ADEF800102F
:10253000C1F30661013101EE101AB8EE411A80EEC6
:10254000010ABCEEC00A10EE101A816080BD00BF07
:102550000024744A20BCBE4B0024744C0000003997
:1025600080B544F2404EC5F6020E5EF8183C5EF8A7
:10257000181C5EF8142CC1F3055CDEF80410BCF1E5
:10258000000F19D0C9089FED3C1AD20501EAE2718B
:1025900003F003026FF35F3100EE101AB8EE400A49
:1025A000DFE802F0022210225EF8401C89060DD4FA
:1025B0009FED331A18E000BF00218160C0E90011CF
:1025C00080BD00BF9FED2D1A0EE000BF5EF8401CDD
:1025D00049F20002C0F2D032C1F3C10122FA01F186
:1025E00001EE101AB8EE411ADEF800109FED253A00
:1025F0006FF35F2102EE101ADEF80010C1F34621DE
:10260000B8EE422A013100EE032A00EE10CAB7EEFE
:10261000003AB8EE400A81EE000A32EE031A20EECC
:10262000010A01EE101AB8EE411A80EE011ABCEE52
:10263000C11A80ED001ADEF80010C1F30641013125
:1026400001EE101AB8EE411A80EE011ABCEEC11A62
:1026500080ED011ADEF80010C1F30661013101EED0
:10266000101AB8EE411A80EE010ABCEEC00A10EE54
:10267000101A816080BD00BF0024744A20BCBE4B8C
:102680000024744C000000392DE9F0470446C0785E
:1026900044F22C480007C5F6020828D5606E4FEAC0
:1026A000305103292AD8DFE801F0030B131B00BFC8
:1026B000D8F8001041F40031C8F8001010E000BF55
:1026C00004F10800022102F08FF8064680B906E006
:1026D00004F12800022102F01BF9064640B9606EA1
:1026E000D8F8241021F440110843C8F8240000262B
:1026F0006078C00706D135462FE000BF012660781C
:10270000C007F8D0A06D04283ED83546DFE800F0B9
:1027100004140E0B0B0000BFD8F80000354640F43F
:102720000030C8F800002F46C5B90DE004F12800BC
:10273000002102F0EDF804E004F10800002102F0AD
:1027400053F805462F464DB9D8F82400A16D20F066
:10275000070000250843C8F8240037466078400782
:102760003AD5D4F8A4004FEA7050052818D8DFE80D
:1027700000F0031D11232323D8F8000040F400309B
:10278000C8F8000018E000BF012501276078400765
:10279000E7D421E004F12800002102F0B9F80AE0B2
:1027A00001250126607800071AD44FE004F10800E3
:1027B000002102F019F805462E461DB16078000789
:1027C0000ED443E0D8F82C00D4F8A41020F4600014
:1027D00000250843C8F82C003E466078000735D530
:1027E000D4F8A8004FEA3060052813D8DFE800F0DD
:1027F00004180C1E1E1E00BFD8F8000040F4003064
:10280000C8F8000012E000BF04F12800002102F027
:102810007FF80AE001250127E07880071AD434E028
:1028200004F10800002101F0DFFF05462F461DB12D
:10283000E07880070ED428E0D8F82C00D4F8A8104F
:1028400020F0E06000250843C8F82C003746E07807
:1028500080071AD5E06C4FEA3010032838D8DFE83B
:1028600000F009032D0900BFD8F8000040F4003043
:10287000C8F800002E464DB9D8F82000E16C20F0D1
:10288000300000250843C8F820003E466078C006A6
:1028900039D5E06D4FEA3030042847D8DFE800F042
:1028A00004221C0A0A0000BFD8F8000040F40030DF
:1028B000C8F800002F463DBB1CE000BF04F1080033
:1028C000022101F091FF0546002D2E46DED1D3E70F
:1028D00001250126DAE700BF04F12800002102F0FB
:1028E00017F804E004F10800002101F07DFF05461F
:1028F0002F464DB9D8F82400E16D20F4E0400025C2
:102900000843C8F8240037466078800635D5206E25
:102910004FEA3040052815D8DFE800F0041A0E040D
:10292000040400BF2E46DDB91EE000BF01250127CB
:1029300060788006EBD420E004F12800012101F04A
:10294000E7FF0AE0012501266078400619D449E036
:1029500004F10800012101F047FF05462E461DB194
:10296000607840060DD43DE0D8F82400216E20F4B4
:10297000E02000250843C8F824003E466078400661
:1029800030D5D4F8AC004FEA307005280ED8DFE817
:1029900000F00313070303032F46ADB918E000BF8F
:1029A00004F12800012101F0B3FF0AE0012501270D
:1029B000607800061AD43CE004F10800012101F01F
:1029C00013FF05462F461DB1607800060ED430E097
:1029D000D8F82C00D4F8AC1020F0E04000250843D3
:1029E000C8F82C0037466078000622D5E06E58B152
:1029F000B0F1005F0CD0B0F1805F37D1D8F80000A3
:102A000040F40030C8F800002E469DB908E000BF31
:102A100004F10800012101F0E7FE05462E464DB9FC
:102A2000D8F82400E16E20F0405000250843C8F893
:102A300024003E46E078C0071DD0A06C032855D87E
:102A4000DFE800F008024A08D8F8000040F400303F
:102A5000C8F80000A9467DB9D8F82000A16C20F084
:102A6000030000250843C8F8200004E001250126E2
:102A7000E078C007E1D1B146A078400602D44F46C5
:102A800018E000BFD8F8D40340F48070C8F8D4032D
:102A9000FFF76EFB064600BFD8F8D403C00507D485
:102AA000FFF766FB801B6428F6D90325032701E0A6
:102AB0002F46FDB12078C00700F06F80A06F4FEA6D
:102AC000F00005284ED8DFE800F003534703030366
:102AD000002D2E4654D157E004F10800022101F0E8
:102AE00083FE0546002DA946C6D1B5E701254FF066
:102AF0000109C1E7D8F84410D4F8B000414011F4FE
:102B0000407F11D0D8F84410D8F8442042F48032E5
:102B1000C8F84420D8F8442021F4407122F48032CF
:102B2000C8F84420C8F84410B0F5807F40F0D08247
:102B3000FFF71EFB064641F2883A0325032700BF34
:102B4000D8F84400800700F1C182FFF711FB801B19
:102B50005045F5D9AEE700BF04F12800012101F08E
:102B6000D7FE0AE0012501262078800719D446E027
:102B700004F10800012101F037FE05462E461DB183
:102B8000207880070DD43AE0D8F82800A16F20F013
:102B9000380000250843C8F828003E462078800702
:102BA0002DD5606F05280FD8DFE800F00414080465
:102BB000040400BF2F46ADB918E000BF04F128009F
:102BC000012101F0A5FE0AE0012501272078400738
:102BD00019D447E004F10800012101F005FE054683
:102BE0002F461DB1207840070DD43BE0D8F82800CF
:102BF000616F20F0070000250843C8F82800374619
:102C0000207840072ED5D4F8900005280ED8DFE8AC
:102C100000F00313070303032E46ADB918E000BF0D
:102C200004F12800012101F073FE0AE001250126CC
:102C3000207880061AD44BE004F10800012101F04D
:102C4000D3FD05462E461DB1207880060ED43FE008
:102C5000D8F82C00D4F8901020F007000025084385
:102C6000C8F82C003E462078800631D5D4F88C0078
:102C70004FEA307005280FD8DFE800F0041408048C
:102C8000040400BF2F46ADB918E000BF04F12800CE
:102C9000022101F03DFE0AE00125012720784006CF
:102CA0001AD44BE004F10800002101F09DFD054617
:102CB0002F461DB1207840060ED43FE0D8F82800FA
:102CC000D4F88C1020F0E04000250843C8F8280014
:102CD00037462078400631D5D4F898004FEAB02026
:102CE00005280FD8DFE800F004140804040400BF2E
:102CF0002E46ADB918E000BF04F12800022101F012
:102D000007FE0AE001250126207800061AD44EE0CD
:102D100004F10800002101F067FD05462E461DB1B3
:102D2000207800060ED442E0D8F82C00D4F8981091
:102D300020F4E05000250843C8F82C003E462078D7
:102D4000000634D5D4F89C004FEA7030052815D819
:102D5000DFE800F0041A0E04040400BF2F46E5B1BA
:102D60002068010727D4C1063ED4000355D477E07C
:102D700004F12800022101F0CBFD0AE00125012722
:102D800020680107EFD516E004F10800002101F0EA
:102D90002BFD0546002D2F46E2D1D8F82C00D4F8A3
:102DA0009C1020F4604000250843C8F82C003746EA
:102DB00020680107D7D5D4F88000B0F5805F09D12D
:102DC00004F12800022101F0A3FD002818BF01270B
:102DD000D4F88000D8F8281021F440510843C8F8EE
:102DE00028002068C106C0D5D4F89400B0F5807FD3
:102DF00009D104F12800022101F08AFD002818BF42
:102E00000127D4F89400D8F82C1021F4407108431D
:102E1000C8F82C002068000322D5D4F8A000B0F533
:102E2000003F11D0B0F5803F08D0002844D104F114
:102E30000800002101F0D8FC05E000BF04F12800E3
:102E4000022101F065FD05462E4655B9D8F82C0043
:102E5000D4F8A01020F4403000250843C8F82C0016
:102E60003E46A07840072CD5D4F88400B0F5401F2A
:102E70000BD0B0F5001F0BD0B0F5801F2AD1D8F8C9
:102E8000000040F40030C8F800002F46D5B907E034
:102E900004F12800012101F03BFD05462F468DB9C4
:102EA000D8F82800D4F8841020F4401000250843F6
:102EB000C8F8280005E000BF01250126A0784007DA
:102EC000D2D43746A078C00709D13E462168880091
:102ED00015D532E001250127A078C007F5D0206D77
:102EE000B0F5803F10D018BBD8F8000040F4003097
:102EF000C8F800002E4685B1216888001DD460689E
:102F00008A0326D465E000BF04F10800022101F025
:102F10006BFC0546002D2E46EED1D8F82000216D21
:102F200020F4803000250843C8F82000CDE700BF1A
:102F30000125012621688800E1D504F1280002213D
:102F400001F0E6FC002818BF0126D4E900108A032E
:102F50003FD5E26F6FF0010303EB3223022B0BD35B
:102F60004FEA322343B1012B40F0AA80D8F8003059
:102F700043F40033C8F8003025B3CA022CD48A02C7
:102F800034D44A003CD4CA0F49D1090251D4C107F4
:102F90005AD1810763D441076CD4010776D4C106A6
:102FA00000F18080800607D504F12800022101F09D
:102FB000AFFC002818BF0125002D18BF01252846A9
:102FC000BDE8F087D8F8283023F440731A43C8F8D6
:102FD00028203546CA02D2D5D8F82420236F22F003
:102FE00000421A43C8F824208A02CAD5D8F82420FF
:102FF000A36E22F080721A43C8F824204A00C2D57A
:1030000058F81C2C22F4004248F81C2CD4F8B420A8
:1030100058F81C3C1A4348F81C2CCA0FB5D0D8F8F5
:103020002020636D22F040521A43C8F82020090284
:10303000ADD5D8F82810D4F8882021F440011143E8
:10304000C8F82810C107A4D004F10800002101F03D
:10305000CBFB002818BF0546606881079BD504F1AB
:103060000800012101F0C0FB002818BF0546606878
:10307000410792D504F10800022101F0B5FB0028B8
:1030800018BF0546606801077FF589AF04F1280085
:10309000002101F03DFC002818BF05466068C1060C
:1030A0007FF580AF04F12800012101F031FC0028F8
:1030B00018BF0546606880063FF576AF7CE700BF25
:1030C0000125CA027FF55BAF86E700BFD4F8B000E8
:1030D0004FF6CF7358F81C2CC0F2FF0300F4407178
:1030E00022F47C5203EA10136FF31F30B1F5407FD6
:1030F00008BF1A43002548F81C2CD8F84410084390
:10310000C8F84400FFF7BBBC2DE9F04381B00028AC
:1031100000F0208142F200090446C5F20029D9F8E6
:10312000000000F00F0081420DD9D9F8000020F016
:103130000F000843C9F80000D9F8000000F00F00A4
:10314000884240F00781206844F218464207C5F6DD
:1031500002060AD52269336803F070039A4204D943
:10316000336823F070031A43326002070AD562699C
:10317000736803F070039A4204D9736823F07003F4
:103180001A437260C2060AD5A269736803F4E06349
:103190009A4204D9736823F4E0631A43726082068A
:1031A0000AD5E269B36803F070039A4204D9B368A0
:1031B00023F070031A43B26010F002020AD0E368F1
:1031C000376807F00F07BB4204D9376827F00F07AD
:1031D0003B433360C3073FD0306820F47062D4E9CA
:1031E00001031A433260012856F8182C0AD003282C
:1031F00004D002280AD192030BD4ABE0920108D488
:10320000A8E000BFD20504D4A4E000BF520740F1FB
:10321000A180884656F8081C21F00701084346F8AB
:10322000080CFEF7A5FF054641F2883756F8080C52
:10323000616800F03800B0EBC10F09D0FEF798FFCD
:10324000401BB842F2D9032001B0BDE8F08300BFB3
:103250002068414600F0020252B1E268336803F090
:103260000F039A4204D2336823F00F031A433260EB
:10327000D9F8002002F00F0291420CD2D9F80020B8
:1032800022F00F020A43C9F80020D9F8002002F00A
:103290000F028A425ED141070AD52169326802F0E5
:1032A0007002914204D2326822F070021143316000
:1032B00001070AD56169726802F07002914204D276
:1032C000726822F0700211437160C1060AD5A169CB
:1032D000726802F4E062914204D2726822F4E06201
:1032E0001143716080060AD5E069B16801F0700190
:1032F000884204D2B16821F070010843B06000F048
:10330000B7F8316847F2F012C0F60002C1F30321AA
:10331000515C336803F00F0301F01F01D25C20FA07
:1033200001F102F01F0040F20C02C2F2000221FA89
:1033300000F0106040F2040040F20802C2F2000007
:10334000C2F200020068116001B0BDE8F043FEF770
:103350005BBF00BF012001B0BDE8F08300000000AA
:1033600080B500F085F844F2184147F2F013C5F635
:103370000201C0F600030A68C2F303229A5C0968DE
:1033800001F00F0102F01F02595C20FA02F201F075
:103390001F0040F20C01C2F2000122FA00F00860A6
:1033A00040F20801C2F200010A6080BD0000000086
:1033B00080B500F05DF844F2184C47F2F013C5F602
:1033C000020CC0F60003DCF80020C2F303229A5C72
:1033D000DCF8001001F00F0102F01F02595CD04030
:1033E00040F20C02C2F2000201F01F0120FA01F1CA
:1033F000116040F20802C2F200021060DCF8040022
:10340000C0F30210185C00F01F0021FA00F080BD2C
:1034100080B500F02DF844F2184C47F2F013C5F6D1
:10342000020CC0F60003DCF80020C2F303229A5C11
:10343000DCF8001001F00F0102F01F02595CD040CF
:1034400040F20C02C2F2000201F01F0120FA01F169
:10345000116040F20802C2F200021060DCF80400C1
:10346000C0F30220185C00F01F0021FA00F080BDBC
:1034700044F20041C5F602010869C0F3C200032806
:1034800016D002280ED0002832D10868800649F2F2
:103490000000C0F2D03058BF70470968C1F3C101C5
:1034A000C840704747F64000C0F27D10704700BF2B
:1034B0008B6A886AD1F82CC04A6BC0F30510E8B15A
:1034C000C2F3CC0203F0030300EE102A9FED2A1A88
:1034D000B8EE400A20EE010A9FED281ADFE803F05B
:1034E000022110210A6892060ED49FED261A18E0D8
:1034F00040F60010C0F23D00704700BF002070474A
:103500009FED1F1A0DE000BF0A6849F20003C0F2E8
:10351000D033C2F3C10223FA02F201EE102AB8EE50
:10352000411A0A6B9FED183A6FF35F2202EE102AE0
:103530005FEACC7203FE000A03EE100A086BB8EED5
:10354000422AC0F34620B8EE433A013030EE020A78
:10355000B7EE002A81EE031A30EE020A21EE000ACD
:1035600001EE100AB8EE411A80EE010ABCEEC00A64
:1035700010EE100A704700BF000000390024744AA2
:1035800020BCBE4B0024744C000000000000000072
:1035900070B3F0B581B00446007844F20046C0072D
:1035A000C5F6020626D1207880076AD5306910F06A
:1035B0003801B06A42D0182908BF5FEA80703DD058
:1035C000E0683168002800F02D8121F019010843DE
:1035D0003060FEF7CDFD0546306840074AD4FEF75F
:1035E000C7FD401B0228F7D9032001B0F0BD00BF82
:1035F00001207047306900F03801B06A102905D009
:1036000018290BD100F00300022807D1306880038D
:10361000C9D560680028C6D1AAE000BF61683068DB
:10362000002900F03981B1F5A02F00F02D81B1F50E
:10363000803F40F0478140F4803049E130684007E6
:10364000E06802D5002800F09380316821F019016C
:1036500008433060FEF78CFD054600BF3068400728
:1036600008D4FEF785FD401B02284FF00300F5D972
:1036700001B0F0BD7068216920F0FE4040EA0160B1
:1036800070602078C0061AD5306900F03801B06A41
:10369000082907D0182940F0858000F00300012890
:1036A00040F080803068C00502D5E06980285FD195
:1036B000F068216A20F07C5040EA0160F0602078D8
:1036C00000073FD42078800656D42078400700F1C8
:1036D0008180656A9DB3306900F03800182840F099
:1036E0001981012DB16A306B42D001F00302A36A47
:1036F0009A423DD1C1F30511E26A914238D10146A7
:10370000226B6FF35F21013A914231D1C0F346221F
:10371000616B01398A422BD1C0F30642A16B01399A
:103720008A4225D1C0F30660E16B013988421FD17E
:10373000706BA16CC0F3CC00814240F0A5810020E9
:1037400001B0F0BD60690028706F59D040F00100F1
:103750007067FEF70DFD0546706F8007B2D4FEF767
:1037600007FD401B0228F7D9032001B0F0BD00BFC0
:10377000012001B0F0BD00BFA0690028306871D001
:1037800040F480503060FEF7F3FC0546306880045A
:103790009BD4FEF7EDFC401B0228F7D9032001B0B3
:1037A000F0BD00BFE0690028306800F0A18040F063
:1037B00080003060FEF7DCFC054600BF3068C005C5
:1037C0003FF576AFFEF7D4FC401B02284FF0030014
:1037D000F4D94DE7D6F8000440F48070C6F8000430
:1037E000FEF7C6FC054600BFD6F80004C0052BD482
:1037F000FEF7BEFC401B6428F6D9032001B0F0BDE3
:1038000020F001007067FEF7B3FC0546706F80077B
:103810007FF558AFFEF7ACFC401B02284FF00300C9
:10382000F4D925E721F001003060FEF7A1FC054640
:10383000306840077FF525AFFEF79AFC401B022851
:103840004FF00300F4D913E7A168306F002900F0AE
:103850008B80052900F08080012940F09D8040F098
:1038600001009FE020F480503060FEF781FC0546A7
:10387000306880047FF529AFFEF77AFC401B0228F0
:103880004FF00300F4D9F3E640F480203060306854
:1038900040F480301CE000BF20F48030306030689D
:1038A00020F480203060FEF763FC0546306880031A
:1038B0007FF579AEFEF75CFC401B64284FF00300F7
:1038C000F4D9D5E620F480303060306820F48020D0
:1038D0003060FEF74DFC0546306880033FF563AE6F
:1038E000FEF746FC401B6428F6D9032001B0F0BD6A
:1038F00020F080003060FEF73BFC05463068C005D4
:103900007FF5DDAEFEF734FC401B02284FF00300CC
:10391000F4D9ADE6306820F080703060FEF728FC06
:10392000022D05460CD100BF306880014CD5FEF752
:103930001FFC401B02284FF00300F5D998E600BF9A
:10394000306880017FF5FBAEFEF712FC401B0228B9
:103950004FF00300F4D98BE640F004003067306F7D
:1039600040F001001EE000BF20F001003067306F22
:1039700020F004003067FEF7FBFB054641F2883774
:10398000306F80077FF5A5AEFEF7F2FB401BB84213
:103990004FF00300F4D96BE620F001003067306F80
:1039A00020F004003067FEF7E3FB054641F288375C
:1039B000306F80073FF58DAEFEF7DAFB401BB84253
:1039C0004FF00300F4D953E604F12807B06A40F23F
:1039D000F33188438ECF0843591E40EA02104FF45A
:1039E0007E426FF35F21B06202EB47204FF4FE028C
:1039F00080B2E36B0844A16B02EB01414FF0FE4241
:103A000001F4FE0102EB0362084402F0FE410844A7
:103A10003063F06A4FF6F87120F00100F062706BCD
:103A2000A26C884340EAC2007063F06A216C20F007
:103A30000C000843F062F06A616C20F00200084359
:103A4000F062F06A40F48030F062F06A40F40030D6
:103A5000F062F06A40F48020F062F06A40F0010009
:103A6000F062306840F080703060FEF781FB044601
:103A7000306880013FF563AEFEF77AFB001B022839
:103A80004FF00300F4D9F3E5F06A20F00100F06292
:103A9000FEF76EFB0546FEF76BFBA842FBD0706B92
:103AA0004FF6F871A26C884340EAC2007063F06A76
:103AB00040F00100F062002001B0F0BD0000000005
:103AC000411E0020B0EB116F02D00120704700BFF3
:103AD0004EF21002F023CEF2000251604EF6235156
:103AE000CEF200010B70072190601160704700005A
:103AF00090F88410012901D1022070472421C0F8D8
:103B0000881001680A680B6822F0005223F0010354
:103B10000B60002343660A602021C0F8881080F8FB
:103B20008430002070470000704700000000000053
:103B3000704700000000000090F88420012A01D1A5
:103B40000220704770B52422C0F888200268D0F89F
:103B500064E0BEF1000FD2F800C0136823F0010347
:103B60001360936823F0606341EA0301916019D008
:103B7000916847F2382E9368C0F6000E5B0F47F24B
:103B80004025C1F34266C0F600051EF80340E95C1B
:103B90002301B3FBF1F11EF80630AE5D1B01B3FB50
:103BA000F6F301E001210123A0F86A102021A0F81A
:103BB0006830C2F800C0C0F88810002180F8841076
:103BC000002070BD0000000090F88420012A01D17F
:103BD0000220704770B52422C0F888200268D0F80F
:103BE00064E0BEF1000FD2F800C0136823F00103B7
:103BF0001360936823F0604341EA0301916019D098
:103C0000916847F2382E9368C0F6000E5B0F47F2BA
:103C10004025C1F34266C0F600051EF80340E95C8A
:103C20002301B3FBF1F11EF80630AE5D1B01B3FBBF
:103C3000F6F301E001210123A0F86A102021A0F889
:103C40006830C2F800C0C0F88810002180F88410E5
:103C5000002070BD00000000704700000000000060
:103C6000704700000000000041F20001D0F800C0E1
:103C7000C4F201018C4518BF704708200862042077
:103C8000CCF820000220CCF8200040F21C5040F27A
:103C90001001C2F20040C2F2000101220123CCF85F
:103CA000203000F0C5BB000070B5016840F62F025F
:103CB000CB691A40202A0A688E680BD102F02004D2
:103CC00006F080552D1917D0416F69B3BDE87040DB
:103CD000084700BF40F60F052B420DD0012540F2EA
:103CE0002014C1F20005C0F2004406EA050C02EA05
:103CF000040515EB0C0525D1DD06C46E16D5012C87
:103D000014D112F0100511D010220A6289684906F8
:103D100066D4B0F85C10B0F85E20B0F85E30002BCE
:103D200018BF914240F05C8270BD00BFDD0215D526
:103D300016F4800512D04FF480120A62BDE870407C
:103D4000FFF78EBFDD0718BF12F4807540F01E81AB
:103D50009D0706F0010E00F125812EE1190606D51A
:103D600002F0800106F40006891940F0BF8259066E
:103D700040F1008112F0400100F0FC80016851E840
:103D8000001F026821F0400142E80013F3B101680E
:103D900051E8001F026821F0400142E80013002BA7
:103DA0001FBF016851E8001F026821F040011CBFDD
:103DB00042E80013002B09D0016851E8001F026897
:103DC00021F0400142E80013002BD7D12021C0F898
:103DD000881000218167BDE8704000F095BC00BFED
:103DE000D0F880100A68526893B2002B9CD0B0F8CB
:103DF0005C60B34298D2A0F85E20C969B1F5807FBB
:103E000000F0AC80016851E8001F026821F4807165
:103E100042E80013F3B1016851E8001F026821F481
:103E2000807142E80013002B1FBF016851E8001F9A
:103E3000026821F480711CBF42E80013002B09D0F6
:103E4000016851E8001F026821F4807142E8001304
:103E5000002BD7D1016851E8021F026821F001014F
:103E600042E80213F3B1016851E8021F026821F031
:103E7000010142E80213002B1FBF016851E8021F35
:103E8000026821F001011CBF42E80213002B09D097
:103E9000016851E8021F026821F0010142E80213A3
:103EA000002BD7D1016851E8021F026821F04001C0
:103EB00042E80213F3B1016851E8021F026821F0E1
:103EC000400142E80213002B1FBF016851E8021FA6
:103ED000026821F040011CBF42E80213002B09D008
:103EE000016851E8021F026821F0400142E8021314
:103EF000002BD7D12021C0F88C100021C1660168A9
:103F000051E8001F026821F0100142E80013F3B1EC
:103F1000016851E8001F026821F0100142E8001317
:103F2000002B1FBF016851E8001F026821F010013B
:103F30001CBF42E80013002B09D0016851E8001FA4
:103F4000026821F0100142E80013002BD7D1D0F80D
:103F5000801004460846FDF747FC20460221016711
:103F6000B0F85C10B0F85E20891A89B2BDE87040E4
:103F7000FFF7DABD190240F1C58112F0804100F06F
:103F8000C181BDE87040FFF767BE00BF01250D622B
:103F9000D0F8905045F00105C0F890509D0706F00C
:103FA000010E0AD5BEF1000F07D002240C62D0F832
:103FB000904044F00404C0F890405C070AD5BEF17C
:103FC000000F07D004250D62D0F8905045F002058F
:103FD000C0F890501D070CD502F0200555EA0C05DD
:103FE00007D008250D62D0F8905045F00805C0F8BC
:103FF00090501D050BD512F0806508D04FF4006578
:104000000D62D0F8905045F02005C0F89050D0F8DF
:104010009050002D3FF488AE9B060BD502F0200295
:1040200006F08053D21805D0426F1AB1044690476B
:1040300020462168D0F89020896801F0400102F004
:104040002802891806D10446FFF70EFE0020C4F8A6
:10405000900070BD016851E8001F026821F4907162
:1040600042E80013F3B1016851E8001F026821F42F
:10407000907142E80013002B1FBF016851E8001F38
:10408000026821F490711CBF42E80013002B09D094
:10409000016851E8001F026821F4907142E80013A2
:1040A000002BD7D14FF6FE71CEF6FF71026852E8B1
:1040B000022F03680A4043E80226DEB1026852E894
:1040C000022F03680A4043E80226002E1FBF026841
:1040D00052E8022F03680A401CBF43E80226002E64
:1040E00008D0026852E8022F03680A4043E802261B
:1040F000002EDBD1C16E012927D1016851E8001FD4
:10410000026821F0100142E80013F3B1016851E8A0
:10411000001F026821F0100142E80013002B1FBFAE
:10412000016851E8001F026821F010011CBF42E83D
:104130000013002B09D0016851E8001F026821F02C
:10414000100142E80013002BD7D12021C0F88C10B9
:104150000021C166026841679168490640F1CE803E
:10416000016851E8021F026821F0400142E8021391
:10417000F3B1016851E8021F026821F0400142E8F2
:104180000213002B1FBF016851E8021F026821F0D3
:1041900040011CBF42E80213002B09D0016851E81E
:1041A000021F026821F0400142E80213002BD7D120
:1041B000D0F88010002900F0A18045F28912044651
:1041C0000846C0F600020A65FDF7A2FD00283FF48C
:1041D000ABADD4F88000016DBDE87040084700BF6A
:1041E000891A026852E8002F036822F4907243E8AB
:1041F0000026F6B1026852E8002F036822F490729C
:1042000043E80026002E1FBF026852E8002F036813
:1042100022F490721CBF43E80026002E09D00268E9
:1042200052E8002F036822F4907243E80026002E23
:10423000D7D14FF6FE72CEF6FF72036853E8023F05
:104240000668134046E80235DDB1036853E8023FD3
:104250000668134046E80235002D1FBF036853E887
:10426000023F066813401CBF46E80235002D08D007
:10427000036853E8023F0668134046E80235002D04
:10428000DBD12022C0F88C200022C266426702687F
:1042900052E8002F036822F0100243E80026F6B12E
:1042A000026852E8002F036822F0100243E800265B
:1042B000002E1FBF026852E8002F036822F0100290
:1042C0001CBF43E80026002E09D0026852E8002FE8
:1042D000036822F0100243E80026002ED7D189B2ED
:1042E00002220267BDE87040FFF71EBC816F002903
:1042F0003FF41AADBDE87040084700BFBDE870400C
:10430000FFF7B2BCD9017FF50FADB2F1FF3FC8BFD7
:1043100070BDBDE87040FFF70BBC0000000000005E
:1043200010B5D8B10446D0F8880028B9002084F828
:104330008400204600F028F82420C4F88800206873
:10434000A16A0268002922F00101016002D0204622
:1043500000F0F2FD204601F01BFC08B1012010BD69
:104360002068416821F490414160816821F02A0170
:104370008160016841F0010101602046BDE8104004
:1043800000F04ABE00000000B0B5B6B0044602A876
:104390000830B02100253195CDE93455CDE93255AD
:1043A000FCF74BF941F200012068C4F20101884298
:1043B00002D036B0B0BD00BF0120029002A8039524
:1043C000FEF762F908B1FDF707FA44F2E040C5F6DE
:1043D0000200016941F010010161016901F0100161
:1043E00001910199016841F001010160006831A962
:1043F00000F00100019001984FF4C060319002205C
:1044000032900020CDE93300072035900020C5F61A
:104410000200FDF7D9FD252000210022FDF790FFC5
:104420002520FDF779FF36B0B0BD00000000000088
:10443000D0F88C30202B07D10123002918BF002A87
:1044400006D11846704700BF02231846704700BFC8
:1044500080B50023C36640F60043D0F800C0C5F61F
:1044600000039C4503D0DCF804301B0204D401F0A7
:10447000DFFD002080BD00BF036853E800CFD0F807
:1044800000E04CF080634EE8003CBCF1000FEED041
:10449000036853E800CFD0F800E04CF080634EE8AA
:1044A000003CBCF1000F1FBF036853E800CFD0F8F9
:1044B00000E04CF080631CBF4EE8003CBCF1000FF4
:1044C000D5D0036853E800CFD0F800E04CF080630B
:1044D0004EE8003CBCF1000FCED1C8E70000000060
:1044E00041F200010068C4F20101884218BF704720
:1044F00070B541F2040540F21004CEF20005C2F29C
:1045000000042E682078A1886288013101F07F01C3
:10451000914203D10120607007E000BFA28840F201
:10452000B053C2F200439854A18040F21C500122C3
:10453000C2F200402146FFF77BFF2868A169801B7B
:104540000844A061E0690130E061206A0130206226
:10455000BDE87040704700002DE9F04381B004468B
:10456000D0F88800202807D10120002918BF002A90
:1045700006D101B0BDE8F083022001B0BDE8F083B0
:104580001D460E460020C4F890002120C4F8880083
:104590001746FDF7EDFDA4F854708146A4F8567057
:1045A000A168B1F5805F02D12069002866D0374646
:1045B0000020B4F856100029216867D06A1C28D062
:1045C000002D53D0804600BFC86900060AD4FDF70D
:1045D000CFFDA0EB0900A84200F2848021680868A2
:1045E000F2E700BF17B117F8010B04E038F8020B2F
:1045F00000276FF35F208862B4F856000138A4F8F2
:104600005600B4F856000028DED13FE0CA69120611
:1046100009D4CA69120606D4CA6912065CBFCA69FF
:104620005FEA0262F2D51FB117F8012B05E000BF67
:1046300030F8022B00276FF35F228A62B4F856200D
:10464000013AA4F85620B4F85620002AE1D11DE022
:1046500030F8022B00276FF35F228A62B4F85620ED
:10466000013AA4F85620B4F856207AB1CA69120665
:1046700036D5002FECD017F8012BEEE70027304697
:10468000B4F85610002921687FF498AFC869400635
:104690001ED42DB3681C14D1C86940062AD4C86939
:1046A000400627D4C869400624D4C86940064FF0A4
:1046B0000000F1D50DE000BF20680168C069400628
:1046C00018D4FDF755FDA0EB0900A842F4D909E084
:1046D00000202021C4F8881001B0BDE8F08300BF9D
:1046E000FDF746FD03202021C4F8881001B0BDE885
:1046F000F08300BF00202021C4F8881001B0BDE87D
:10470000F08300000000000070470000000000007F
:10471000FEE700000000000082B044F2E040C5F671
:104720000200016841F080010160016801F0800130
:1047300001910199016841F001010160006800F0F8
:1047400001000090009802B07047000000000000D7
:1047500080B540F21C5041F20001C2F20040C4F2A8
:1047600001010C2201604FF4E13141600021C0E9F8
:1047700002110161C0E90521C0E90711C0E9091171
:10478000FFF7CEFD08B1FDF727F840F21C500021DD
:10479000C2F20040FFF718FA08B1FDF71DF840F229
:1047A0001C500021C2F20040FFF7C6F908B1FDF726
:1047B00013F840F21C50C2F20040FFF799F90028AC
:1047C00008BF80BDBDE88040FDF706B800000000CE
:1047D000FEE7000000000000FEE70000000000000F
:1047E0007047000000000000F0B581B044F22C4793
:1047F000C5F6020757F8042C02F00302032A03D17E
:10480000012001B0F0BD00BF054657F82C0C0C4646
:1048100020F0806047F82C0CFDF7AAFC064600BF8C
:1048200057F82C0C000105D5FDF7A2FC801B0228CF
:10483000F6D964E057F8040CEE6895E80E0020F411
:104840007C30012C40EA0130A2F101016FF35F21BD
:104850004FF47E4202EB432247F8040C92B24FF031
:10486000FE4302EB01004FF4FE012A6901EB064111
:1048700001F4FE0103EB0262084402F0FE41084429
:10488000F8603868696920F0C00040EA01003860CB
:104890003868A96920F0200040EA010038603868D3
:1048A0004FF6F87120F0100038603869EA6920EAA4
:1048B00001004FF4001140EAC2003861386808BFB7
:1048C0004FF4801140F01000002C386008BF4FF406
:1048D000002138680843386057F82C0C40F080609D
:1048E00047F82C0CFDF744FC044600BF57F82C0C8D
:1048F000000107D4FDF73CFC001B0328F6D303207E
:1049000001B0F0BD002001B0F0BD000000000000CB
:10491000F0B581B044F22C47C5F6020757F8042CD5
:1049200002F00302032A03D1012001B0F0BD00BF51
:10493000054657F82C0C0C4620F0805047F82C0CFC
:10494000FDF716FC064600BF57F82C0C800005D575
:10495000FDF70EFC801B0228F6D964E057F8040C22
:10496000EE6895E80E0020F07C70012C40EA0150C2
:10497000A2F101016FF35F214FF47E4202EB43226B
:1049800047F8040C92B24FF0FE4302EB01004FF4E3
:10499000FE012A6901EB064101F4FE0103EB02620C
:1049A000084402F0FE41084478613868696920F4DF
:1049B000406040EA010038603868A96920F400705E
:1049C00040EA0100386038684FF6F87120F48070D2
:1049D0003860B869EA6920EA01004FF0807140EA66
:1049E000C200B861386808BF4FF4000140F480701D
:1049F000002C386008BF4FF48001386808433860E5
:104A000057F82C0C40F0805047F82C0CFDF7B0FB09
:104A1000044600BF57F82C0C800007D4FDF7A8FB14
:104A2000001B0328F6D3032001B0F0BD002001B025
:104A3000F0BD00000000000080B500F029F8002063
:104A40000121BDE8804000F05BB8000000000000DC
:104A500083B080B5C1B0CDE94312459398B1844687
:104A600043AB68464FF4807162464093FBF782FD8A
:104A7000012808DB0246FF2869464FF0000028BFE6
:104A8000FF2200F095F841B0BDE8804003B07047C8
:104A900040F274000021C2F20040032247F2AF232B
:104AA0008162C0F600030261426140F21C12C2F250
:104AB0000042C162C0E906324FF480620366C0E979
:104AC000082140F26002C2F2004201324266102226
:104AD0008266C166C0E91C1145F25241C0F2540120
:104AE000C0F8071044F24751C0F25201C0F8031059
:104AF00044F25351C4F24771016020218171704723
:104B000010B540F274038C46C2F200431A789AB191
:104B10001969884246D200EB4000EFF311824FF052
:104B2000200181F3118803EBC000C0F82CC00020E5
:104B300082F3118810BD00BF47F2AF2E40F21C1463
:104B400000229A62C0F6000EC2F20044C3E906E4F5
:104B50004FF480640321C3E9084240F26004196104
:104B6000C2F200445961DA620134C3F860E05C6665
:104B700010249C66DA66C3E91C2245F25242C0F258
:104B80005402C3F8072044F24752C0F25202C3F85D
:104B9000032044F25352C4F247721A6020229A71E1
:104BA0008842B8D34FF0FF3010BD00000000000075
:104BB00010B540F2740E8C46C2F2004E9EF80030E2
:104BC000E3BB0021CEF828100323CEF8103047F2C3
:104BD000AF24CEF8143040F21C13C0F60004C2F229
:104BE0000043CEF82C10CEE906434FF48063CEF894
:104BF0006040CEE9083140F26003C2F20043013365
:104C0000CEF864301023CEF86830CEF86C10CEE9C0
:104C10001C1145F25241C0F25401CEF8071044F283
:104C20004751C0F25201CEF8031044F25351C4F27E
:104C30004771CEF8001020218EF80610EFF3118492
:104C40004FF0200181F31188614600F005F884F3EC
:104C5000118810BD000000002DE9F04700EB400076
:104C600040F27403C2F20043924603EBC0030D46C8
:104C700003F11809D86A02282ED0012820D0002874
:104C800040F08F80D9F80C40D9F81000E143A042E1
:104C900040F2808008445045C0F08380D9E901018A
:104CA0000E1B2044B24563D229465246FBF780FCD6
:104CB00004EB0A00C9F80C005046BDE8F08700BFBD
:104CC000D9F80C40D9F81010A14237D9E04301447B
:104CD000D9F8080037E000BFD9F80C7054464FF0FF
:104CE000000A1EE0D9F8081010440844CE1B2946DB
:104CF000B04238BF0646D9F80400A642384428BF5F
:104D000026463246FBF754FCF019D9F80810471A2A
:104D1000A4EB060418BF0746B2443544C9F80C702A
:104D200044B1D9F81000FA43B842DBD91044D9F89D
:104D30000810DBE75046BDE8F08700BFE243D9F832
:104D40000800114401445145A0EB040638BF8A46CF
:104D5000D9F80400B24520440AD229465246FBF74E
:104D600027FC0AEB0400C9F80C005046BDE8F087A8
:104D700029463246FBF71CFCAAEB0608D9F80400CA
:104D8000A9194246FBF714FC5046C9F80C80BDE84F
:104D9000F08700BFD9F80820084410445045BFF4FC
:104DA0007DAF0020BDE8F0877047000000000000E4
:104DB000FDF7E6B900000000B0B59CB044F6180459
:104DC00009A84C21C5F60204FBF737FC0220002598
:104DD000CDE90755CDE90555CDE90355CDE9015597
:104DE000FDF7EEFA0095206820F44040206020682E
:104DF00000F44040009000982068800409D42068A6
:104E000080045CBF20685FEA804002D42068800490
:104E1000F2D50220099012900025CDE917000C2050
:104E20000121CDE919054FF440601B9009A80C91B0
:104E300040240D941395042214922222CDE91521C9
:104E4000FEF7A6FB20B1EFF3108072B6FEE700BFBD
:104E50003F20019003200321CDE90205082006949C
:104E6000CDE904044FF48060CDE9070401A8FEF702
:104E70004BF928B1EFF3108072B600BFFEE700BF18
:104E80001CB0B0BD000000004EF6885042F2000C8D
:104E9000CEF20000C5F2002C026842F470020260FB
:104EA000DCF8000000F00F00062806D8DCF800004F
:104EB000072262F30300CCF8000044F200404EF6F3
:104EC0007F51C5F60200CEF6F621026842F00102DB
:104ED000026000220261036819400160DCF80010E2
:104EE000090706D5DCF80010072363F30301CCF8AB
:104EF000001040F200218261C261C0F20221026210
:104F000081620021C0F2FF11C16240F28021C0F233
:104F10000111016342638163C263016442640168F9
:104F200021F480210160026644F20000C5F20020F5
:104F300043F2D20101607047816A0A070CD4CA07A4
:104F400015D18A071ED44A0727D4CA0630D48A0648
:104F500039D44A0642D454E00268D0F838C05368C5
:104F600023F4004343EA0C035360CA07E9D0026804
:104F7000D0F82CC0536823F4003343EA0C03536089
:104F80008A07E0D50268D0F830C0536823F4803334
:104F900043EA0C0353604A07D7D50268D0F834C0FF
:104FA000536823F4802343EA0C035360CA06CED52A
:104FB0000268D0F83CC0936823F4805343EA0C03A2
:104FC00093608A06C5D50268D0F840C0936823F480
:104FD000005343EA0C0393604A0612D50268D0F8E6
:104FE00044C0BCF5801F536823F4801343EA0C03CC
:104FF000536006D1536823F4C00C836C43EA0C035E
:105000005360090658BF70470168C06C4A6822F4B3
:105010000022104348607047B0B582B004460020BB
:10502000C4F89000FDF7A4F8216805460A68120745
:1050300037D54FF4001100226FF07E4000902046DB
:105040002B4601F031F958B3206850E8000F216871
:1050500020F0800041E80002002A1FBF206850E8CD
:10506000000F216820F080001CBF41E80002002AE8
:1050700012D0206850E8000F216820F0800041E83D
:1050800000024AB1206850E8000F216820F080003B
:1050900041E80002002AD7D10320202188226CE0B9
:1050A0002168086840075FD54FF4800100226FF047
:1050B0007E40009020462B4601F0F6F8002853D0A1
:1050C000206850E8000F216820F4907041E8000249
:1050D000F2B1206850E8000F216820F4907041E898
:1050E0000002002A1FBF206850E8000F216820F44A
:1050F00090701CBF41E80002002A09D0206850E8E7
:10510000000F216820F4907041E80002002AD7D1F6
:10511000206850E8020F216820F0010041E80202F7
:10512000002A1FBF206850E8020F216820F001000C
:105130001CBF41E80202002A12D0206850E8020F8A
:10514000216820F0010041E802024AB1206850E8DD
:10515000020F216820F0010041E80202002AD7D1A5
:10516000032020218C2208E02020C4F88800C4F805
:105170008C00002170220020E166A150002184F8FB
:10518000841002B0B0BD0000806B0021A0F85E105A
:10519000A0F85610FEF768BDB0F860200168D0F89E
:1051A0008C30222B40F0A880496A836D114023F88F
:1051B000021B8365B0F85E100139A0F85E10B0F8EC
:1051C0005E10002918BF7047016851E8001F02688F
:1051D00021F4907142E80013F3B1016851E8001F17
:1051E000026821F4907142E80013002B1FBF016890
:1051F00051E8001F026821F490711CBF42E80013BF
:10520000002B09D0016851E8001F026821F4907159
:1052100042E80013002BD7D1016851E8021F026851
:1052200021F0010142E80213F3B1016851E8021FC5
:10523000026821F0010142E80213002B1FBF016840
:1052400051E8021F026821F001011CBF42E802136D
:10525000002B09D0016851E8021F026821F001010A
:1052600042E80213002BD7D12021C0F88C10002176
:105270004167016740F600420168C5F600029142AD
:1052800002D0496809023DD4C16E012964D10021D0
:10529000C166016851E8001F026821F0100142E870
:1052A0000013F3B1016851E8001F026821F01001FA
:1052B00042E80013002B1FBF016851E8001F02687D
:1052C00021F010011CBF42E80013002B09D0016837
:1052D00051E8001F026821F0100142E80013002B82
:1052E000D7D10168CA69D20601D510220A62B0F886
:1052F0005C10FEF719BC00BF886940F008008861A7
:10530000704700BF016851E8001F026821F080610A
:1053100042E80013002BB7D0016851E8001F026873
:1053200021F0806142E80013002B1FBF016851E8A3
:10533000001F026821F080611CBF42E80013002BAF
:10534000A2D0016851E8001F026821F0806142E8A4
:105350000013002BD6D197E7FFF7C2B8000000007A
:105360002DE9F04F81B004460368B0F86050DA6967
:1053700018689968D4F88C70222F65D1B4F8683019
:10538000002B18BF12F0200266D1B4F85E0000288E
:105390005ED0B4F8681088425AD2206850E8020FF4
:1053A000216820F0805041E80202F2B1206850E804
:1053B000020F216820F0805041E80202002A1FBF3E
:1053C000206850E8020F216820F080501CBF41E89F
:1053D0000202002A09D0206850E8020F216820F05C
:1053E000805041E80202002AD7D145F29910C0F658
:1053F00000006067206850E8000F216840F020003E
:1054000041E8000222B3206850E8000F216840F014
:10541000200041E80002002A1FBF206850E8000F6A
:10542000216840F020001CBF41E80002002A0FD094
:10543000206850E8000F216840F0200041E8000299
:10544000002AD7D104E000BF986940F008009861B5
:1054500001B0BDE8F08F00BF4FF6FE7640F6004980
:10546000CEF6FF760027C5F6000900F4807B01F038
:10547000010A07E02046FFF733F800BF5FEA8860C3
:105480007FF583AF2068A16D426A2A4021F8022B84
:10549000A165B4F85E100139A4F85E10D0F81C8044
:1054A0005FEA487135D05FEAC87218BFBBF1000FE0
:1054B00004D15FEA88720CD416E000BF01220262B8
:1054C000D4F8902042F00102C4F890205FEA88727C
:1054D0000AD5BAF1000F07D002220262D4F8902058
:1054E00042F00402C4F8902000290AD5BAF1000F56
:1054F00007D004210162D4F8900040F00200C4F803
:105500009000D4F8900020B12046FEF7ADFBC4F81F
:105510009070B4F85E000028B0D1206850E8000F09
:10552000216820F4807041E80002FAB1206850E858
:10553000000F216820F4807041E80002002A1FBF9C
:10554000206850E8000F216820F480701CBF41E8FB
:105550000002002A0AD0206850E8000F216820F4D9
:10556000807041E80002002AD7D100BF206850E8CF
:10557000020F2168304041E80202DAB1206850E8A9
:10558000020F2168304041E80202002A1FBF206854
:1055900050E8020F216830401CBF41E80202002A97
:1055A00008D0206850E8020F2168304041E802022C
:1055B000002ADBD12020C4F88C00676727672068A9
:1055C000484502D04068000238D4E06E01287FF4DC
:1055D00051AFE766206850E8000F216820F0100006
:1055E00041E80002F2B1206850E8000F216820F085
:1055F000100041E80002002A1FBF206850E8000F99
:10560000216820F010001CBF41E80002002A09D0E8
:10561000206850E8000F216820F0100041E80002E7
:10562000002AD7D12068C169C90601D510210162BD
:10563000B4F85C102046FEF777FA1FE7206850E8C0
:10564000000F216820F0806041E80002002ABCD0F1
:10565000206850E8000F216820F0806041E80002D7
:10566000002A1FBF206850E8000F216820F08060EA
:105670001CBF41E80002002AA7D0206850E8000FB4
:10568000216820F0806041E80002002AD6D19CE722
:10569000B0F860100268D0F88C30222B40F0AA805D
:1056A000526A836D11401970816D01318165B0F8C6
:1056B0005E100139A0F85E10B0F85E10002918BF26
:1056C0007047016851E8001F026821F4907142E8B8
:1056D0000013FBB1016851E8001F026821F49071CA
:1056E00042E80013002B1FBF016851E8001F026849
:1056F00021F490711CBF42E80013002B0AD001680E
:1057000051E8001F026821F4907142E80013002B59
:10571000D7D100BF016851E8021F026821F00101E2
:1057200042E80213F3B1016851E8021F026821F058
:10573000010142E80213002B1FBF016851E8021F5C
:10574000026821F001011CBF42E80213002B09D0BE
:10575000016851E8021F026821F0010142E80213CA
:10576000002BD7D12021C0F88C10002141670167A0
:1057700040F600420168C5F60002914202D0496835
:1057800009023DD4C16E012964D10021C1660168BE
:1057900051E8001F026821F0100142E80013F3B144
:1057A000016851E8001F026821F0100142E800136F
:1057B000002B1FBF016851E8001F026821F0100193
:1057C0001CBF42E80013002B09D0016851E8001FFC
:1057D000026821F0100142E80013002BD7D10168C4
:1057E000CA69D20601D510220A62B0F85C10FEF731
:1057F0009BB900BF906940F008009061704700BFFE
:10580000016851E8001F026821F0806142E800133E
:10581000002BB7D0016851E8001F026821F08061B9
:1058200042E80013002B1FBF016851E8001F026807
:1058300021F080611CBF42E80013002BA2D0016858
:1058400051E8001F026821F0806142E80013002B3C
:10585000D6D197E7FEF744BE2DE9F04F81B004465C
:105860000368B0F86050DA6918689968D4F88C70E9
:10587000222F65D1B4F86830002B18BF12F0200237
:1058800066D1B4F85E0000285ED0B4F86810884293
:105890005AD2206850E8020F216820F0805041E879
:1058A0000202F2B1206850E8020F216820F0805017
:1058B00041E80202002A1FBF206850E8020F216859
:1058C00020F080501CBF41E80202002A09D0206865
:1058D00050E8020F216820F0805041E80202002ABF
:1058E000D7D145F29160C0F600006067206850E8AB
:1058F000000F216840F0200041E8000222B3206838
:1059000050E8000F216840F0200041E80002002A22
:105910001FBF206850E8000F216840F020001CBF26
:1059200041E80002002A0FD0206850E8000F2168EB
:1059300040F0200041E80002002AD7D104E000BF77
:10594000986940F00800986101B0BDE8F08F00BF91
:105950004FF6FE7640F60049CEF6FF760027C5F6F4
:10596000000900F4807B01F0010A07E02046FEF701
:10597000B7FD00BF5FEA88607FF583AF2068A16D47
:10598000406A28400870A06D0130A0652068B4F816
:105990005E100139A4F85E10D0F81C805FEA4871EF
:1059A00035D05FEAC87218BFBBF1000F04D15FEABF
:1059B00088720CD416E000BF01220262D4F8902055
:1059C00042F00102C4F890205FEA88720AD5BAF169
:1059D000000F07D002220262D4F8902042F00402A5
:1059E000C4F8902000290AD5BAF1000F07D004218D
:1059F0000162D4F8900040F00200C4F89000D4F89E
:105A0000900020B12046FEF72FF9C4F89070B4F84A
:105A10005E000028AED1206850E8000F216820F415
:105A2000807041E80002FAB1206850E8000F216858
:105A300020F4807041E80002002A1FBF206850E86F
:105A4000000F216820F480701CBF41E80002002A8A
:105A50000AD0206850E8000F216820F4807041E8E7
:105A60000002002AD7D100BF206850E8020F216849
:105A7000304041E80202DAB1206850E8020F2168A4
:105A8000304041E80202002A1FBF206850E8020FA0
:105A9000216830401CBF41E80202002A08D020687B
:105AA00050E8020F2168304041E80202002ADBD1B1
:105AB0002020C4F88C00676727672068484502D01B
:105AC0004068000238D4E06E01287FF44FAFE766EB
:105AD000206850E8000F216820F0100041E8000223
